:100000000C9472000C9493000C9493000C94930045
:100010000C9493000C9493000C9493000C94930014
:100020000C9493000C9493000C9493000C94C305CF
:100030000C9493000C9493000C9493000C949300F4
:100040000C9493000C9493000C9493000C949300E4
:100050000C9493000C9493000C9493000C945D0406
:100060000C9493000C9493000C9493000C949300C4
:100070000C9493000C9493000C9493000C94E6045D
:100080000C9493000C94C1040C9493000C94930072
:100090000C9493000C9493000C9493000C94930094
:1000A0000C9493000C9493000C9493000C94930084
:1000B0000C9493000C9407010C9493000C949300FF
:1000C0000C9493000C9493000C9493000C94930064
:1000D0000C9493000C9493000C9493000C94930054
:1000E0000C94930011241FBECFEFD1E2DEBFCDBF31
:1000F00000E00CBF12E0A0E0B2E0EAEAFFE000E0BE
:100100000BBF02C007900D92AA32B107D9F722E0C7
:10011000AAE2B2E001C01D92A634B207E1F70E9444
:1001200096020C94D3070C940000109231021092A6
:1001300030021092A5001092A40082E08093A100EA
:1001400008951092A10080912C0290912D020196A9
:1001500090932D0280932C02089580912C0290910F
:100160002D02039744F010922D0210922C0210924F
:100170002F0210922E02089520912E0230912F020C
:100180002130310569F021E030E030932F022093D7
:100190002E0280932A0290932B020E9495000895CC
:1001A0000E94AD0008951092A0001092A900109234
:1001B000A8001092AB001092AA0081E08093720018
:1001C00008950E94D3000895282F392F2115310555
:1001D00021F02130310571F0089561E070E08AE08E
:1001E00090E00E94B20360E070E08BE090E00E943B
:1001F000B203089560E070E08AE090E00E94B203EC
:1002000061E070E08BE090E00E94B20308951F92DD
:100210000F920FB60F9211240BB60F922F933F93AC
:100220004F935F936F937F938F939F93AF93BF93FE
:10023000EF93FF9380913002909131020196909359
:1002400031028093300280913002909131028A35E0
:100250009105D1F080913002909131028F3C91054F
:1002600019F1FF91EF91BF91AF919F918F917F9184
:100270006F915F914F913F912F910F900BBE0F9017
:100280000FBE0F901F90189580912C0290912D0217
:10029000029739F080912A0290912B020E94E4008B
:1002A000D9CF0E94A100D6CF80E090E00E94DB036E
:1002B00080912C0290912D02009731F42EEC3FEFAB
:1002C0003093310220933002019690932D02809357
:1002D0002C02C7CF80B1039905C082FB882780F923
:1002E00090E0089582E090E0089586B18695869525
:1002F000869591E08927817090E0089586B191E01C
:100300008927817090E00895319B0BC026B1269516
:10031000269531E02327822F817090E0880F991F66
:10032000089581E090E0089580E090E061E070E061
:1003300037B1AB01082E02C0440F551F0A94E2F7F3
:10034000242F2095232327B928B1242B28B90196DF
:100350008530910569F7089580E090E0EBE0F1E0E9
:1003600061E070E02081AB01082E02C0440F551FF0
:100370000A94E2F7242B208301968830910591F7A7
:10038000089580E090E061E070E031B1AB01082EAB
:1003900002C0440F551F0A94E2F7242F209523230F
:1003A00021B922B1242B22B901968430910569F735
:1003B00008950E9497040E9403040E94C1010E94B4
:1003C000AC010E9494010E94E1000895009902C0CE
:1003D000019B07C0009B08C0019B09C083E090E01F
:1003E000089580E090E0089581E090E0089582E033
:1003F00090E00895282F392F213382E0380731F01B
:10040000253F81E038072CF4822F089581E090E0A9
:10041000089584E690E00895809140029091410211
:100420000E94FA010E970CF457C0809144029091FB
:1004300045020E94FA010A97D4F480913402909107
:100440003502892B69F080914402909145020E9407
:10045000FA010B9794F010923502109234020DC0FD
:1004600081E090E09093350280933402089580916A
:10047000340290913502892B31F78091420290919C
:1004800043020E94FA010A97F4F48091320290919B
:100490003302892B79F080914202909143020E94AD
:1004A000FA010B97E4F0109233021092320283E0CB
:1004B00090E0089581E090E09093330280933202BF
:1004C00082E090E008958091320290913302892B6E
:1004D00011F783E090E0089580E090E0089583E0D4
:1004E00090E00895282F392F233331055CF4C9019A
:1004F0000B97039760F02A30310574F02F303105E7
:1005000084F4089581E090E00E94DB03089581E087
:1005100090E00E94DB03089582E090E00E94DB03FC
:10052000089580E090E00E94DB03EBCF0E94D901A8
:1005300080E090E00E94DB03C0E0D0E0E12CF12CF1
:100540005BC00E947E01892B09F060C0C230D105DA
:1005500009F492C03CF5C130D10509F04DC0C090FE
:100560004002D09041020E94E601082F192F02306C
:10057000110509F474C00CF064C00115110509F4EB
:1005800069C001301105C1F562E070E08BE090E0D8
:100590000E94B20361E070E08AE090E00E94B20342
:1005A000E8012AC0C330D10539F580913602909117
:1005B00037020E94BC00892BF9F091E080E0209185
:1005C000360230913702232B11F09E2D8F2D909300
:1005D00036028093370210C081E090E00E94DB0376
:1005E0000E947501C1E0D0E0892B11F4CE2DDF2DE2
:1005F000CC0FDD1FCC0FDD1F0E947501892B61F729
:10060000C430D10549F3209709F09BCF81E090E0F9
:100610000E94DB030E947E01C82FD92F209761F32F
:100620000E948401C82FD92FC130D10529F381E060
:1006300090E0229711F08E2D9F2DEC01CC0FDD1F45
:10064000DBCF03301105C1F6C6010E94FA010E94FA
:100650007202D2CF81E090E00E94DB03CDCF62E056
:1006600070E08AE090E00E94B20361E070E08BE00D
:1006700090E00E94B203C0CF029B02C00399BCCF9E
:100680000E940C02082F192F0230110589F1ACF4D9
:100690000115110541F10130110509F0ADCF81E0DF
:1006A00090E00E94DB039FEF23ED80E39150204018
:1006B0008040E1F700C000009FCF0330110509F032
:1006C0009BCF0E946A01082F192F01301105F9F004
:1006D0000230110549F1012B09F08ECF80E090E046
:1006E0000E94DB0389CF81E090E00E94DB0384CF8E
:1006F00081E090E00E94DB039FEF23ED80E39150C7
:1007000020408040E1F700C00000E80175CF62E0C2
:1007100070E08AE090E00E94B20361E070E08BE05C
:1007200090E00E94B20368CF62E070E08BE090E05E
:100730000E94B20361E070E08AE090E00E94B203A0
:10074000E8015ACF1092B00083E08093B10010927C
:10075000B3001092B40081E08093700086E0809333
:10076000B2000895282F392F862F972F51E040E0AF
:100770008130910569F02A30310561F02B30310567
:1007800081F00297A9F088E192E091838083089537
:1007900050E0F1CF5093020240930302E6E0F2E012
:1007A000F0CF5093000240930102E4E0F2E0E9CF81
:1007B00088E092E0EACFCF93DF93D82FC92F682F3C
:1007C000792F8AE090E00E94B2036D2F7C2F8BE09E
:1007D00090E00E94B203DF91CF91089514BC83E0B2
:1007E00085BD17BC18BC81E080936E0086E086BD95
:1007F00078940895809A819A829A839A849A859AA5
:10080000869A879A08950E94FA0360E070E08AE071
:1008100090E00E94B2030E94EE03089581B3807FAE
:1008200081BB81B3E0910602F091070220913E0264
:1008300030913F02220F331FE20FF31F9081892B6B
:1008400081BB80913E0290913F029C012F5F3F4F00
:10085000079729F030933F0220933E02089520E04D
:1008600030E0F8CF81B38F7081BB81B3E091040297
:10087000F091050220913C0230913D02220F331F7E
:10088000E20FF31F2081318122953295307F32278C
:10089000207F3227822B81BB80913C0290913D02C8
:1008A0009C012F5F3F4F079729F030933D02209323
:1008B0003C02089520E030E0F8CF1F920F920FB66F
:1008C0000F9211240BB60F922F933F934F935F9388
:1008D0006F937F938F939F93AF93BF93EF93FF9308
:1008E0008091020290910302892BD9F48091000239
:1008F00090910102892BC1F486E086BDFF91EF91B2
:10090000BF91AF919F918F917F916F915F914F9127
:100910003F912F910F900BBE0F900FBE0F901F9025
:1009200018950E940E04E2CF0E943204E5CFF8949D
:10093000E0E9F0E0808182688083E1E9F0E0808195
:100940008A61808380E090E890939700809396007E
:1009500084E190E090939900809398008CE795E172
:1009600090939B0080939A006B9AE1E7F0E080817E
:1009700084628083E8E6F0E08081846080837894FC
:1009800008958F938FB78F938BB78F93EF93FF93C8
:1009900080912802880F8093280280912802803459
:1009A00089F08091280280936D00E1E7F0E080817A
:1009B00084608083FF91EF918F918BBF8F918FBF68
:1009C0008F91189582E080932802EBCF1F920F92AF
:1009D0000FB60F9211240BB60F922F933F934F93A4
:1009E0005F936F937F938F939F93AF93BF93EF9397
:1009F000FF93CF93DF9300D00F92CDB7DEB78091F6
:100A000028028230F1F180912802843009F487C0F5
:100A100080912802803109F067C080919600909102
:100A200097008656914196958795969587959C0156
:100A300040E050E029833A834B835C83CA01B901CB
:100A40000E94D80628E23EE74CE05DE369837A83A2
:100A50008B839C8369817A818B819C810E943E0774
:100A600069837A838B839C8369817A818B819C8162
:100A70000E94A906462F572F5093410240934002EF
:100A800033C080919600909197008656914196953B
:100A90008795969587959C0140E050E029833A839D
:100AA0004B835C83CA01B9010E94D80628E23EE765
:100AB0004CE05DE369837A838B839C8369817A81CF
:100AC0008B819C810E943E0769837A838B839C8300
:100AD00069817A818B819C810E94A906462F572FBC
:100AE000509343024093420210926D000F900F907A
:100AF0000F900F90DF91CF91FF91EF91BF91AF9148
:100B00009F918F917F916F915F914F913F912F9125
:100B10000F900BBE0F900FBE0F901F9018958091F5
:100B20009600909197008656914196958795969557
:100B300087959C0140E050E029833A834B835C8396
:100B4000CA01B9010E94D80628E23EE74CE05DE305
:100B500069837A838B839C8369817A818B819C8171
:100B60000E943E0769837A838B839C8369817A81A3
:100B70008B819C810E94A906462F572F50934502D6
:100B800040934402B1CF1F920F920FB60F921124DF
:100B90000BB60F922F933F934F935F936F937F9377
:100BA0008F939F93AF93BF93EF93FF93CF93DF9375
:100BB00000D00F92CDB7DEB780912802823009F4C1
:100BC0003FC080912802843009F48EC080912802B1
:100BD000803109F069C0809194009091950086560B
:100BE000914196958795969587959C0140E050E0B8
:100BF00029833A834B835C83CA01B9010E94D806DA
:100C000028E23EE74CE05DE369837A838B839C8333
:100C100069817A818B819C810E943E0769837A83F6
:100C20008B839C8369817A818B819C810E94A90638
:100C3000462F572F5093410240934002139834C0DF
:100C40008091940090919500865691419695879554
:100C5000969587959C0140E050E029833A834B8329
:100C60005C83CA01B9010E94D80628E23EE74CE045
:100C70005DE369837A838B839C8369817A818B812D
:100C80009C810E943E0769837A838B839C83698160
:100C90007A818B819C810E94A906462F572F509301
:100CA0004302409342021098E1E7F0E080818F7D9B
:100CB000808310926D000F900F900F900F90DF9136
:100CC000CF91FF91EF91BF91AF919F918F917F91C4
:100CD0006F915F914F913F912F910F900BBE0F90AD
:100CE0000FBE0F901F9018958091940090919500E1
:100CF0008656914196958795969587959C0140E0FB
:100D000050E029833A834B835C83CA01B9010E9476
:100D1000D80628E23EE74CE05DE369837A838B8363
:100D20009C8369817A818B819C810E943E076983C3
:100D30007A838B839C8369817A818B819C810E94D9
:100D4000A906462F572F509345024093440211980D
:100D5000ABCF0E941D0788F09F5798F0B92F9927B5
:100D6000B751B0F0E1F0660F771F881F991F1AF096
:100D7000BA95C9F714C0B13091F00E943707B1E0BD
:100D800008950C943707672F782F8827B85F39F0BC
:100D9000B93FCCF3869577956795B395D9F73EF42F
:100DA00090958095709561957F4F8F4F9F4F0895D7
:100DB000E89409C097FB3EF49095809570956195F5
:100DC0007F4F8F4F9F4F9923A9F0F92F96E9BB27AB
:100DD0009395F695879577956795B795F111F8CF27
:100DE000FAF4BB0F11F460FF1BC06F5F7F4F8F4F92
:100DF0009F4F16C0882311F096E911C0772321F088
:100E00009EE8872F762F05C0662371F096E8862F1F
:100E100070E060E02AF09A95660F771F881FDAF776
:100E2000880F9695879597F9089557FD9058440F28
:100E3000551F59F05F3F71F04795880F97FB991F39
:100E400061F09F3F79F087950895121613061406F6
:100E5000551FF2CF4695F1DF08C016161706180683
:100E6000991FF1CF86957105610508940895E8945E
:100E7000BB2766277727CB0197F908950E94510772
:100E80000C94C2070E94B40738F00E94BB0720F000
:100E9000952311F00C94AB070C94B10711240C941A
:100EA00038070E94150770F3959FC1F3950F50E026
:100EB000551F629FF001729FBB27F00DB11D639F0C
:100EC000AA27F00DB11DAA1F649F6627B00DA11DB2
:100ED000661F829F2227B00DA11D621F739FB00D58
:100EE000A11D621F839FA00D611D221F749F3327C8
:100EF000A00D611D231F849F600D211D822F762F61
:100F00006A2F11249F5750409AF0F1F088234AF03D
:100F1000EE0FFF1FBB1F661F771F881F91505040A9
:100F2000A9F79E3F510580F00C94AB070C9438074D
:100F30005F3FE4F3983ED4F3869577956795B79530
:100F4000F795E7959F5FC1F7FE2B880F911D96954A
:100F5000879597F9089597F99F6780E870E060E0BA
:100F600008959FEF80EC089500240A941616170642
:100F700018060906089500240A941216130614068A
:100F800005060895092E0394000C11F4882352F0ED
:100F9000BB0F40F4BF2B11F460FF04C06F5F7F4FA5
:0A0FA0008F4F9F4F0895F894FFCF84
:100FAA000100010018021802090008000C000400E0
:100FBA00060002000300010001000300020006000F
:0A0FCA0004000C00080009000200FA
:00000001FF
