:100000000C9472000C9493000C9493000C94930045
:100010000C9493000C9493000C9493000C94930014
:100020000C9493000C9493000C9493000C945E0336
:100030000C9493000C9493000C9493000C949300F4
:100040000C9493000C9493000C9493000C949300E4
:100050000C9493000C9493000C9493000C948501E1
:100060000C9493000C9493000C9493000C949300C4
:100070000C9493000C9493000C9493000C940E0237
:100080000C9493000C94E9010C9493000C9493004D
:100090000C9493000C9493000C9493000C94930094
:1000A0000C9493000C9493000C9493000C94930084
:1000B0000C9493000C9493000C9493000C94930074
:1000C0000C9493000C9493000C9493000C94930064
:1000D0000C9493000C9493000C9493000C94930054
:1000E0000C94930011241FBECFEFD1E2DEBFCDBF31
:1000F00000E00CBF12E0A0E0B2E0E8ECFBE000E0C2
:100100000BBF02C007900D92AA32B107D9F722E0C7
:10011000AAE2B2E001C01D92AC33B207E1F70E943F
:10012000BA000C94E2050C940000282F392F293CCA
:1001300031050CF4089581E090E00895282F392FBF
:10014000C9014297059738F0213131054CF028312B
:1001500031055CF4089581E090E00E940301089568
:1001600082E090E00E940301089580E090E00E9408
:100170000301F0CF279A269A0E94BF010E942B010B
:1001800004C02F986497A4F42E9AC0913A02D0919B
:100190003B02C93CD1053CF4CE010E949E00C53112
:1001A000D1057CF304C081E090E00E949E002F9A6C
:1001B0002E98EBCF282F392F862F972F51E040E034
:1001C0008130910569F02A30310561F02B3031051D
:1001D00081F00297A9F088E192E0918380830895ED
:1001E00050E0F1CF5093020240930302E6E0F2E0C8
:1001F000F0CF5093000240930102E4E0F2E0E9CF37
:1002000088E092E0EACFCF93DF93D82FC92F682FF1
:10021000792F8AE090E00E94DA006D2F7C2F8BE02E
:1002200090E00E94DA00DF91CF91089514BC83E042
:1002300085BD17BC18BC81E080936E0086E086BD4A
:1002400078940895809A819A829A839A849A859A5A
:10025000869A879A08950E94220160E070E08AE001
:1002600090E00E94DA000E941601089581B3807F19
:1002700081BB81B3E0910602F09107022091300228
:1002800030913102220F331FE20FF31F9081892B2F
:1002900081BB80913002909131029C012F5F3F4FD2
:1002A000079729F03093310220933002089520E01F
:1002B00030E0F8CF81B38F7081BB81B3E09104024D
:1002C000F091050220912E0230912F02220F331F50
:1002D000E20FF31F2081318122953295307F322742
:1002E000207F3227822B81BB80912E0290912F029A
:1002F0009C012F5F3F4F079729F030932F022093E7
:100300002E02089520E030E0F8CF1F920F920FB632
:100310000F9211240BB60F922F933F934F935F933D
:100320006F937F938F939F93AF93BF93EF93FF93BD
:100330008091020290910302892BD9F480910002EE
:1003400090910102892BC1F486E086BDFF91EF9167
:10035000BF91AF919F918F917F916F915F914F91DD
:100360003F912F910F900BBE0F900FBE0F901F90DB
:1003700018950E943601E2CF0E945A01E5CFF89409
:10038000E0E9F0E0808182688083E1E9F0E080814B
:100390008A61808380E090E8909397008093960034
:1003A00084E190E090939900809398008CE795E128
:1003B00090939B0080939A006B9AE1E7F0E0808134
:1003C00084628083E8E6F0E08081846080837894B2
:1003D00008958F938FB78F938BB78F93EF93FF937E
:1003E00080912802880F809328028091280280340F
:1003F00089F08091280280936D00E1E7F0E0808130
:1004000084608083FF91EF918F918BBF8F918FBF1D
:100410008F91189582E080932802EBCF1F920F9264
:100420000FB60F9211240BB60F922F933F934F9359
:100430005F936F937F938F939F93AF93BF93EF934C
:10044000FF93CF93DF9300D00F92CDB7DEB78091AB
:100450002802823009F448C080912802843009F4CF
:1004600091C080912802883009F4C0C08091280290
:10047000803109F4EFC080912802803209F067C012
:100480008091960090919700865691419695879518
:10049000969587959C0140E050E029833A834B83F1
:1004A0005C83CA01B9010E94E70428E23EE74CE000
:1004B0005DE369837A838B839C8369817A818B81F5
:1004C0009C810E944D0569837A838B839C8369811B
:1004D0007A818B819C810E94B804462F572F5093BC
:1004E00037024093360233C0809196009091970076
:1004F0008656914196958795969587959C0140E003
:1005000050E029833A834B835C83CA01B9010E947E
:10051000E70428E23EE74CE05DE369837A838B835E
:100520009C8369817A818B819C810E944D056983BE
:100530007A838B839C8369817A818B819C810E94E1
:10054000B804462F572F5093390240933802109227
:100550006D000F900F900F900F90DF91CF91FF9152
:10056000EF91BF91AF919F918F917F916F915F912B
:100570004F913F912F910F900BBE0F900FBE0F9098
:100580001F90189580919600909197008656914102
:1005900096958795969587959C0140E050E0298334
:1005A0003A834B835C83CA01B9010E94E70428E2C5
:1005B0003EE74CE05DE369837A838B839C836981AA
:1005C0007A818B819C810E944D0569837A838B831C
:1005D0009C8369817A818B819C810E94B804462F1B
:1005E000572F50933B0240933A02B1CF809196002F
:1005F0009091970086569141969587959695879507
:100600009C0140E050E029833A834B835C83CA011C
:10061000B9010E94E70428E23EE74CE05DE369830C
:100620007A838B839C8369817A818B819C810E94F0
:100630004D0569837A838B839C8369817A818B8161
:100640009C810E94B804462F572F50933302409349
:1006500032027DCF8091960090919700865691410D
:1006600096958795969587959C0140E050E0298363
:100670003A834B835C83CA01B9010E94E70428E2F4
:100680003EE74CE05DE369837A838B839C836981D9
:100690007A818B819C810E944D0569837A838B834B
:1006A0009C8369817A818B819C810E94B804462F4A
:1006B000572F509335024093340249CF1F920F9227
:1006C0000FB60F9211240BB60F922F933F934F93B7
:1006D0005F936F937F938F939F93AF93BF93EF93AA
:1006E000FF93CF93DF9300D00F92CDB7DEB7809109
:1006F0002802823009F449C080912802843009F42C
:1007000098C080912802883009F4C8C080912802DE
:10071000803109F4F8C080912802803209F069C064
:100720008091940090919500865691419695879579
:10073000969587959C0140E050E029833A834B834E
:100740005C83CA01B9010E94E70428E23EE74CE05D
:100750005DE369837A838B839C8369817A818B8152
:100760009C810E944D0569837A838B839C83698178
:100770007A818B819C810E94B804462F572F509319
:10078000370240933602149834C0809194009091BF
:1007900095008656914196958795969587959C01EB
:1007A00040E050E029833A834B835C83CA01B9015E
:1007B0000E94E70428E23EE74CE05DE369837A8328
:1007C0008B839C8369817A818B819C810E944D05FA
:1007D00069837A838B839C8369817A818B819C81F5
:1007E0000E94B804462F572F509339024093380285
:1007F0001098E1E7F0E080818F7D808310926D009A
:100800000F900F900F900F90DF91CF91FF91EF918C
:10081000BF91AF919F918F917F916F915F914F9118
:100820003F912F910F900BBE0F900FBE0F901F9016
:1008300018958091940090919500865691419695D7
:100840008795969587959C0140E050E029833A83EF
:100850004B835C83CA01B9010E94E70428E23EE7AA
:100860004CE05DE369837A838B839C8369817A8121
:100870008B819C810E944D0569837A838B839C8345
:1008800069817A818B819C810E94B804462F572F01
:1008900050933B0240933A021198ABCF8091940061
:1008A0009091950086569141969587959695879556
:1008B0009C0140E050E029833A834B835C83CA016A
:1008C000B9010E94E70428E23EE74CE05DE369835A
:1008D0007A838B839C8369817A818B819C810E943E
:1008E0004D0569837A838B839C8369817A818B81AF
:1008F0009C810E94B804462F572F50933302409397
:100900003202129876CF809194009091950086568D
:10091000914196958795969587959C0140E050E08A
:1009200029833A834B835C83CA01B9010E94E7049F
:1009300028E23EE74CE05DE369837A838B839C8306
:1009400069817A818B819C810E944D0569837A83BC
:100950008B839C8369817A818B819C810E94B804FE
:10096000462F572F5093350240933402139841CFAE
:100970000E942C0588F09F5798F0B92F9927B751FE
:10098000B0F0E1F0660F771F881F991F1AF0BA9533
:10099000C9F714C0B13091F00E944605B1E0089546
:1009A0000C944605672F782F8827B85F39F0B93F38
:1009B000CCF3869577956795B395D9F73EF49095E6
:1009C0008095709561957F4F8F4F9F4F0895E89464
:1009D00009C097FB3EF490958095709561957F4F87
:1009E0008F4F9F4F9923A9F0F92F96E9BB27939535
:1009F000F695879577956795B795F111F8CFFAF445
:100A0000BB0F11F460FF1BC06F5F7F4F8F4F9F4F75
:100A100016C0882311F096E911C0772321F09EE8D3
:100A2000872F762F05C0662371F096E8862F70E039
:100A300060E02AF09A95660F771F881FDAF7880F13
:100A40009695879597F9089557FD9058440F551F2F
:100A500059F05F3F71F04795880F97FB991F61F040
:100A60009F3F79F087950895121613061406551FB7
:100A7000F2CF4695F1DF08C0161617061806991F23
:100A8000F1CF86957105610508940895E894BB2718
:100A900066277727CB0197F908950E9460050C948B
:100AA000D1050E94C30538F00E94CA0520F09523A5
:100AB00011F00C94BA050C94C00511240C94470550
:100AC0000E94240570F3959FC1F3950F50E0551FC8
:100AD000629FF001729FBB27F00DB11D639FAA2793
:100AE000F00DB11DAA1F649F6627B00DA11D661FE2
:100AF000829F2227B00DA11D621F739FB00DA11D03
:100B0000621F839FA00D611D221F749F3327A00DBC
:100B1000611D231F849F600D211D822F762F6A2F58
:100B200011249F5750409AF0F1F088234AF0EE0FBD
:100B3000FF1FBB1F661F771F881F91505040A9F7EA
:100B40009E3F510580F00C94BA050C9447055F3F19
:100B5000E4F3983ED4F3869577956795B795F79526
:100B6000E7959F5FC1F7FE2B880F911D969587959E
:100B700097F9089597F99F6780E870E060E008951D
:100B80009FEF80EC089500240A94161617061806A5
:100B90000906089500240A94121613061406050681
:100BA0000895092E0394000C11F4882352F0BB0F12
:100BB00040F4BF2B11F460FF04C06F5F7F4F8F4F75
:080BC0009F4F0895F894FFCF48
:100BC8000100010018021802090008000C000400C6
:100BD80006000200030001000100030002000600F5
:0A0BE80004000C00080009000200E0
:00000001FF
