:100000000C9472000C9493000C9493000C94930045
:100010000C9493000C9493000C9493000C94930014
:100020000C9493000C9493000C9493000C94AC04E7
:100030000C9493000C9493000C9493000C949300F4
:100040000C9493000C9493000C9493000C949300E4
:100050000C9493000C9493000C9493000C9446031E
:100060000C9493000C9493000C9493000C949300C4
:100070000C9493000C9493000C9493000C94CF0375
:100080000C9493000C94AA030C9493000C9493008A
:100090000C9493000C9493000C9493000C94930094
:1000A0000C9493000C9493000C9493000C94930084
:1000B0000C9493000C9493000C9493000C94930074
:1000C0000C9493000C9493000C9493000C94930064
:1000D0000C9493000C9493000C9493000C94930054
:1000E0000C94930011241FBECFEFD1E2DEBFCDBF31
:1000F00000E00CBF12E0A0E0B2E0ECE7FDE000E0C1
:100100000BBF02C007900D92AA32B107D9F722E0C7
:10011000AAE2B2E001C01D92AC33B207E1F70E943F
:10012000B9010C94BC060C940000349B09C086B144
:1001300086958695869591E08927817090E008954F
:1001400081E090E0089586B191E08927817090E088
:100150000895319B0BC026B12695269531E02327C3
:10016000822F817090E0880F991F089581E090E0C0
:10017000089580E090E061E070E037B1AB01082EB7
:1001800002C0440F551F0A94E2F7242F2095232321
:1001900027B928B1242B28B901968530910569F734
:1001A000089580E090E0EBE0F1E061E070E0208114
:1001B000AB01082E02C0440F551F0A94E2F7242B0E
:1001C000208301968830910591F7089580E090E0B2
:1001D00061E070E031B1AB01082E02C0440F551F41
:1001E0000A94E2F7242F2095232321B922B1242B4E
:1001F00022B901968430910569F708950E94800321
:100200000E94EC020E94E6000E94D1000E94B90008
:100210000895009902C0019B07C0009B08C0019B84
:1002200009C083E090E0089580E090E0089581E0C7
:1002300090E0089582E090E00895282F392F21332F
:1002400082E0380731F0253F81E038072CF4822F17
:10025000089581E090E0089584E690E0089580910B
:100260003602909137020E941D010E970CF457C080
:1002700080913A0290913B020E941D010A97D4F4AA
:1002800080912C0290912D02892B69F080913A0285
:1002900090913B020E941D010B9794F010922D0249
:1002A00010922C020DC081E090E090932D0280937B
:1002B0002C02089580912C0290912D02892B31F708
:1002C00080913802909139020E941D010A97F4F43E
:1002D00080912A0290912B02892B79F0809138022B
:1002E000909139020E941D010B97E4F010922B02AD
:1002F00010922A0283E090E0089581E090E09093CC
:100300002B0280932A0282E090E0089580912A02D5
:1003100090912B02892B11F783E090E0089580E003
:1003200090E0089583E090E00895282F392F23333B
:1003300031055CF4C9010B97039760F02A30310551
:1003400074F02F30310584F4089581E090E00E942C
:10035000C402089581E090E00E94C402089582E002
:1003600090E00E94C402089580E090E00E94C402E0
:10037000EBCF0E94FE00C2E0D0E0E12CF12C51C096
:100380000E94A300892B09F056C0C230D10509F4A0
:1003900088C03CF5C130D10509F043C0C090360299
:1003A000D09037020E940901082F192F0230110541
:1003B00009F46AC00CF05AC00115110509F45FC0B8
:1003C0000130110571F562E070E08BE090E00E9471
:1003D0009B0261E070E08AE090E00E949B02E801ED
:1003E00020C0C330D105E9F46E2D7F2D8AE090E066
:1003F0000E949B0262E070E08BE090E00E949B0212
:1004000010C081E090E00E94C4020E949500C1E00B
:10041000D0E0892B11F4CE2DDF2DCC0FDD1FCC0FBA
:10042000DD1F0E949500892B61F7C430D10549F387
:10043000209709F0A5CF81E090E00E94C4020E94BD
:10044000A300C82FD92F209761F30E94A900C82FBD
:10045000D92FC130D10529F381E090E0229711F026
:100460008E2D9F2DEC01CC0FDD1FDBCF033011054E
:10047000C1F6C6010E941D010E949501D2CF81E004
:1004800090E00E94C402CDCF62E070E08AE090E08C
:100490000E949B0261E070E08BE090E00E949B0272
:1004A000C0CF0E942F01082F192F0230110521F112
:1004B000ACF401151105D9F00130110509F0B1CFE7
:1004C00081E090E00E94C4029FEF23ED80E3915011
:1004D00020408040E1F700C00000A3CF03301105A9
:1004E00009F09FCF8E2D9F2D0E94C4029ACF81E0EC
:1004F00090E00E94C40295CF81E090E00E94C40287
:100500009FEF23ED80E3915020408040E1F700C051
:100510000000E80186CF1092B00083E08093B10024
:100520001092B3001092B40081E08093700086E0D6
:100530008093B2000895282F392F862F972F51E0EE
:1005400040E08130910569F02A30310561F02B30AF
:10055000310581F00297A9F088E192E091838083D0
:10056000089550E0F1CF5093020240930302E6E079
:10057000F2E0F0CF5093000240930102E4E0F2E099
:10058000E9CF88E092E0EACFCF93DF93D82FC92F4D
:10059000682F792F8AE090E00E949B026D2F7C2FBC
:1005A0008BE090E00E949B02DF91CF91089514BCF4
:1005B00083E085BD17BC18BC81E080936E0086E0A7
:1005C00086BD78940895809A819A829A839A849AB3
:1005D000859A869A879A08950E94E30260E070E007
:1005E0008AE090E00E949B020E94D702089581B3A6
:1005F000807F81BB81B3E0910602F09107022091D8
:10060000340230913502220F331FE20FF31F908125
:10061000892B81BB80913402909135029C012F5F20
:100620003F4F079729F03093350220933402089505
:1006300020E030E0F8CF81B38F7081BB81B3E091CF
:100640000402F09105022091320230913302220F10
:10065000331FE20FF31F2081318122953295307FC5
:100660003227207F3227822B81BB809132029091EA
:1006700033029C012F5F3F4F079729F030933302DD
:1006800020933202089520E030E0F8CF1F920F92BD
:100690000FB60F9211240BB60F922F933F934F93E7
:1006A0005F936F937F938F939F93AF93BF93EF93DA
:1006B000FF938091020290910302892BD9F48091DB
:1006C000000290910102892BC1F486E086BDFF9162
:1006D000EF91BF91AF919F918F917F916F915F91BA
:1006E0004F913F912F910F900BBE0F900FBE0F9027
:1006F0001F9018950E94F702E2CF0E941B03E5CFDE
:10070000F894E0E9F0E0808182688083E1E9F0E03C
:1007100080818A61808380E090E890939700809345
:10072000960084E190E090939900809398008CE784
:1007300095E190939B0080939A006B9AE1E7F0E03B
:10074000808184628083E8E6F0E080818460808339
:10075000789408958F938FB78F938BB78F93EF9380
:10076000FF9380912802880F8093280280912802AD
:10077000803489F08091280280936D00E1E7F0E0F9
:10078000808184608083FF91EF918F918BBF8F91E7
:100790008FBF8F91189582E080932802EBCF1F9234
:1007A0000F920FB60F9211240BB60F922F933F9317
:1007B0004F935F936F937F938F939F93AF93BF9369
:1007C000EF93FF93CF93DF9300D00F92CDB7DEB7B7
:1007D000809128028230F1F180912802843009F45E
:1007E00087C080912802803109F067C0809196000F
:1007F0009091970086569141969587959695879505
:100800009C0140E050E029833A834B835C83CA011A
:10081000B9010E94C10528E23EE74CE05DE369832F
:100820007A838B839C8369817A818B819C810E94EE
:10083000270669837A838B839C8369817A818B8184
:100840009C810E949205462F572F50933702409368
:10085000360233C080919600909197008656914160
:1008600096958795969587959C0140E050E0298361
:100870003A834B835C83CA01B9010E94C10528E217
:100880003EE74CE05DE369837A838B839C836981D7
:100890007A818B819C810E94270669837A838B836E
:1008A0009C8369817A818B819C810E949205462F6D
:1008B000572F509339024093380210926D000F90D9
:1008C0000F900F900F90DF91CF91FF91EF91BF911B
:1008D000AF919F918F917F916F915F914F913F91D8
:1008E0002F910F900BBE0F900FBE0F901F90189579
:1008F00080919600909197008656914196958795A4
:10090000969587959C0140E050E029833A834B837C
:100910005C83CA01B9010E94C10528E23EE74CE0B0
:100920005DE369837A838B839C8369817A818B8180
:100930009C810E94270669837A838B839C836981CB
:100940007A818B819C810E949205462F572F50936C
:100950003B0240933A02B1CF1F920F920FB60F9213
:1009600011240BB60F922F933F934F935F936F9386
:100970007F938F939F93AF93BF93EF93FF93CF9307
:10098000DF9300D00F92CDB7DEB78091280282307E
:1009900009F43FC080912802843009F48EC0809110
:1009A0002802803109F069C08091940090919500EF
:1009B0008656914196958795969587959C0140E03E
:1009C00050E029833A834B835C83CA01B9010E94BA
:1009D000C10528E23EE74CE05DE369837A838B83BF
:1009E0009C8369817A818B819C810E94270669831F
:1009F0007A838B839C8369817A818B819C810E941D
:100A00009205462F572F5093370240933602139882
:100A100034C08091940090919500865691419695AE
:100A20008795969587959C0140E050E029833A830D
:100A30004B835C83CA01B9010E94C10528E23EE7ED
:100A40004CE05DE369837A838B839C8369817A813F
:100A50008B819C810E94270669837A838B839C8388
:100A600069817A818B819C810E949205462F572F44
:100A700050933902409338021098E1E7F0E080810A
:100A80008F7D808310926D000F900F900F900F90CC
:100A9000DF91CF91FF91EF91BF91AF919F918F9196
:100AA0007F916F915F914F913F912F910F900BBE6E
:100AB0000F900FBE0F901F90189580919400909109
:100AC00095008656914196958795969587959C01B8
:100AD00040E050E029833A834B835C83CA01B9012B
:100AE0000E94C10528E23EE74CE05DE369837A831A
:100AF0008B839C8369817A818B819C810E942706EC
:100B000069837A838B839C8369817A818B819C81C1
:100B10000E949205462F572F50933B0240933A0272
:100B20001198ABCF0E94060688F09F5798F0B92F16
:100B30009927B751B0F0E1F0660F771F881F991F12
:100B40001AF0BA95C9F714C0B13091F00E9420068E
:100B5000B1E008950C942006672F782F8827B85F9E
:100B600039F0B93FCCF3869577956795B395D9F76A
:100B70003EF490958095709561957F4F8F4F9F4F74
:100B80000895E89409C097FB3EF490958095709580
:100B900061957F4F8F4F9F4F9923A9F0F92F96E9C9
:100BA000BB279395F695879577956795B795F1113E
:100BB000F8CFFAF4BB0F11F460FF1BC06F5F7F4FDB
:100BC0008F4F9F4F16C0882311F096E911C07723ED
:100BD00021F09EE8872F762F05C0662371F096E8F6
:100BE000862F70E060E02AF09A95660F771F881FC5
:100BF000DAF7880F9695879597F9089557FD9058DD
:100C0000440F551F59F05F3F71F04795880F97FBD0
:100C1000991F61F09F3F79F087950895121613068A
:100C20001406551FF2CF4695F1DF08C016161706B9
:100C30001806991FF1CF86957105610508940895EE
:100C4000E894BB2766277727CB0197F908950E9480
:100C50003A060C94AB060E949D0638F00E94A4064A
:100C600020F0952311F00C9494060C949A0611240C
:100C70000C9421060E94FE0570F3959FC1F3950F19
:100C800050E0551F629FF001729FBB27F00DB11D10
:100C9000639FAA27F00DB11DAA1F649F6627B00DA0
:100CA000A11D661F829F2227B00DA11D621F739F89
:100CB000B00DA11D621F839FA00D611D221F749F97
:100CC0003327A00D611D231F849F600D211D822FDE
:100CD000762F6A2F11249F5750409AF0F1F0882305
:100CE0004AF0EE0FFF1FBB1F661F771F881F915032
:100CF0005040A9F79E3F510580F00C9494060C9447
:100D000021065F3FE4F3983ED4F386957795679587
:100D1000B795F795E7959F5FC1F7FE2B880F911D5B
:100D20009695879597F9089597F99F6780E870E001
:100D300060E008959FEF80EC089500240A94161651
:100D4000170618060906089500240A9412161306B9
:100D5000140605060895092E0394000C11F4882347
:100D600052F0BB0F40F4BF2B11F460FF04C06F5F63
:0C0D70007F4F8F4F9F4F0895F894FFCFE6
:100D7C000100010018021802090008000C00040010
:100D8C00060002000300010001000300020006003F
:0A0D9C0004000C000800090002002A
:00000001FF
