:100000000C9472000C9493000C9493000C94930045
:100010000C9493000C9493000C9493000C94930014
:100020000C9493000C9493000C9493000C9460092E
:100030000C9493000C9493000C9493000C94C701BF
:100040000C9493000C9493000C9493000C949300E4
:100050000C9493000C9493000C9493000C94590707
:100060000C9493000C9493000C9493000C949300C4
:100070000C9493000C9493000C9493000C9434080B
:100080000C9493000C9407080C9493000C94930028
:100090000C9493000C9493000C9493000C94930094
:1000A0000C9493000C9493000C9493000C94930084
:1000B0000C9493000C94C6020C9493000C9493003F
:1000C0000C9493000C9493000C9493000C94930064
:1000D0000C9493000C9493000C9493000C94930054
:1000E0000C94930011241FBECFEFD1E2DEBFCDBF31
:1000F00000E00CBF12E0A0E0B2E0E4EAF7E100E0CB
:100100000BBF02C007900D92A433B107D9F722E0CC
:10011000A4E3B2E001C01D92A437B207E1F70E9448
:10012000A8040C94D00B0C940000E1E0F1E0808175
:1001300080668083249AE2E0F1E080818F7B808377
:1001400080818F7D8083089520E030E0682F880FC4
:10015000770BE2E0F1E00CC02C98908190649083E2
:1001600090819F7B90832F5F3F4F2830310559F05E
:10017000AB01022E02C0559547950A94E2F740FF65
:10018000EBCF2C9AEACF08959C012D5F3F4F81E081
:1001900001C0880F2A95EAF70E94A4000895E2E0C2
:1001A000F1E080818062808380818F7D80830895EB
:1001B0008F929F92AF92BF92CF92DF92EF92FF9277
:1001C0000F931F93CF93DF93C82FD92F2097E1F17F
:1001D000C9318CEFD80708F44DC0D195C195D1092C
:1001E00088248394912C00E010E00F2EFAE0CF2EAB
:1001F000D12CF02DCE01B6010E947E0AA62EB72E7C
:10020000FC01E050FE4F80810E94A4007E01CA2DB7
:10021000DB2D58010F5F1F4FC8010E94C4000E94D0
:10022000CF008AE0E816F1042CF78928C1F4DF91A9
:10023000CF911F910F91FF90EF90DF90CF90BF90E3
:10024000AF909F908F900895809100020E94A4002B
:1002500081E090E00E94C4000E94CF00E8CF80912E
:100260000A020E94A400C50102960E94C4000E94D6
:10027000CF00DDCF812C912C1C161D060CF4B3CFC2
:10028000D6CF85B194E0892785B9089585B198E0E6
:10029000892785B90895EBE0F1E0808191E0892715
:1002A00080830895EBE0F1E0808192E089278083EC
:1002B0000895892B31F0EBE0F1E080818460808348
:1002C0000895EBE0F1E080818B7F80830895892B96
:1002D00031F0EBE0F1E08081886080830895EBE00D
:1002E000F1E08081877F80830895CF93DF93D82FBB
:1002F000C92F0E9459018D2F9C2F0E946701DF9109
:10030000CF910895892B31F0EBE0F1E0808180619D
:1003100080830895EBE0F1E080818F7E80830895F3
:10032000892B31F0EBE0F1E08081806280830895D9
:10033000EBE0F1E080818F7D80830895CF93DF93A0
:10034000D82FC92F0E9482018D2F9C2F0E949001CF
:10035000DF91CF910895892B31F0EBE0F1E08081BE
:10036000806480830895EBE0F1E080818F7B80835F
:100370000895892B31F0EBE0F1E080818068808383
:100380000895EBE0F1E080818F77808308951F92DC
:100390000F920FB60F9211240BB60F922F933F932B
:1003A0004F935F936F937F938F939F93AF93BF937D
:1003B000EF93FF93809134029091350201969093D0
:1003C00035028093340280913402909135028C3250
:1003D000914099F0FF91EF91BF91AF919F918F91D3
:1003E0007F916F915F914F913F912F910F900BBE35
:1003F0000F900FBE0F901F90189580913C02909126
:100400003D02892B19F5EBE0F1E080818E7F80833E
:1004100080913A0290913B02892BD9F4EBE0F1E014
:1004200080818D7F80838091380290913902892B61
:1004300099F42A988091360290913702892B79F4A9
:100440002B981092350210923402C4CF0E944B01B7
:10045000DFCF0E945201E7CF0E944101EBCF0E9403
:100460004601EFCF1092B00083E08093B10010926C
:10047000B3001092B40081E08093700086E0809316
:10048000B20008958FEF80930A0184B18C6084B923
:100490000E94320208951092450210924402109276
:1004A000A5001092A40082E08093A100089510920C
:1004B000A1008091400290914102019690934102E7
:1004C00080934002089580914002909141020397E9
:1004D00044F0109241021092400210924302109296
:1004E00042020895CF93DF93D82FC92F8091420203
:1004F00090914302019799F080E090E00E94D90624
:1005000081E090E09093430280934202D0933E02B8
:10051000C0933F020E944B02DF91CF9108950E9449
:100520006302FACF1092A0001092A9001092A800C6
:100530001092AB001092AA0081E08093720008959F
:100540000E9492020895282F392F2115310521F09C
:100550002130310571F0089561E070E08AE090E0AB
:100560000E94B00660E070E08BE090E00E94B00670
:10057000089560E070E08AE090E00E94B00661E0DB
:1005800070E08BE090E00E94B00608951F920F92F9
:100590000FB60F9211240BB60F922F933F934F93E8
:1005A0005F936F937F938F939F93AF93BF93EF93DB
:1005B000FF938091440290914502019690934502E9
:1005C000809344028091440290914502813E9105BE
:1005D000D1F080914402909145028635914019F105
:1005E000FF91EF91BF91AF919F918F917F916F910B
:1005F0005F914F913F912F910F900BBE0F900FBEC7
:100600000F901F901895809140029091410202979F
:1006100039F080913E0290913F020E94A302D9CF0F
:100620000E945702D6CF80E090E00E94D9068091C8
:10063000400290914102009731F42CEE3FEF30934D
:100640004502209344020196909341028093400218
:10065000C7CF029B06C080B183FB882780F990E05A
:10066000089580E090E00895029905C0039906C0BE
:1006700080E090E0089581E090E0089582E090E0CD
:10068000089586B186958695869591E08927817033
:1006900090E0089586B191E08927817090E00895F7
:1006A000329B0AC026B1269531E02327822F817024
:1006B00090E0880F991F089581E090E0089580E010
:1006C00090E061E070E037B1AB01082E02C0440F4A
:1006D000551F0A94E2F7242F2095232327B928B128
:1006E000242B28B901968530910569F7089580E09B
:1006F00090E061E070E031B1AB01082E02C0440F20
:10070000551F0A94E2F7242F2095232321B922B103
:10071000242B22B901968430910569F708950E942F
:1007200042020E94DD070E9401070E9477030E9497
:100730005F030E94A0020E9495000895009902C0E4
:10074000019B07C0009B08C0019B09C083E090E0AB
:10075000089580E090E0089581E090E0089582E0BF
:1007600090E00895282F392F213382E0380731F0A7
:10077000243F81E038072CF4822F089581E090E037
:10078000089584E690E008950F931F93CF93DF932D
:10079000C0917202D09173020091700210917102A7
:1007A00080916E0290916F020E94B20344970CF404
:1007B0008EC0CE010E94B203282F392F2730310579
:1007C0004CF58091500290915102892B49F580910E
:1007D0004E0290914F02892B59F010924F021092C5
:1007E0004E0281E090E0909351028093500271C0DC
:1007F00081E090E090934F0280934E022FEF85EAC4
:100800009EE0215080409040E1F700C0000083E06E
:1008100090E05FC08091500290915102892B39F590
:10082000C8010E94B203282F392F27303105C4F5A3
:1008300080914C0290914D02892B09F04FC080911C
:100840004A0290914B02892BF1F481E090E0909361
:100850004B0280934A022FEF85EA9EE021508040B0
:100860009040E1F700C0000083E090E032C0283003
:100870003105B4F2109251021092500210924F02C0
:1008800010924E02CDCF10924B0210924A0281E09C
:1008900090E090934D0280934C0282E090E019C06A
:1008A00080914C0290914D02892B19F483E090E0E5
:1008B00010C028303105ACF010924D0210924C025D
:1008C00010924B0210924A0283E090E002C080E056
:1008D00090E0DF91CF911F910F91089583E090E018
:1008E000F8CF83E090E0F5CF282F392F293231055A
:1008F0005CF4C9010897059780F027303105B4F002
:100900002E303105E4F4089581E090E00E94D9068C
:1009100080E090E00E947501089581E090E00E94DF
:10092000D90680E090E00E947501089582E090E091
:100930000E94D90681E090E00E947501089580E050
:1009400090E00E94D90680E090E00E947501DBCF24
:100950000E948F0380E090E00E94D80081E090E048
:100960000E949E01C0E0D0E000E010E06894CC243A
:10097000C1F8D12C32C0C330D10509F4CDC1C43087
:10098000D10559F581E090E00E94D90681E090E020
:100990000E94B90181E090E00E94AB0181E090E00B
:1009A00090933D0280933C0290933B0280933A02E5
:1009B00090933902809338029093370280933602E5
:1009C0000E9475010E944103C1E0D0E0892B09F427
:1009D000E801CC0FDD1FCC0FDD1F809170029091DC
:1009E00071020E94D8000E944103892B59F6C2303F
:1009F000D10509F4B0C00CF0BECF209791F1C13001
:100A0000D10559F7A0906E02B0906F020E949E032C
:100A1000E82EF92E92E0E916F10409F485C00CF0F5
:100A200061C0E114F10409F470C081E0E816F1043A
:100A3000A1F681E090E090933D0280933C021093F8
:100A40003B0200933A026C2D7D2D8BE090E00E94DA
:100A5000B00661E070E08AE090E00E94B006E70135
:100A6000BCCF81E090E00E94D906C8010E94B90184
:100A7000C8010E94AB0110933D0200933C02109309
:100A80003B0200933A02109339020093380210930C
:100A9000370200933602C8010E9475010E944A0382
:100AA000282F392F2115310511F4E90196CF0E9425
:100AB0005003282F392F2130310561F022303105C4
:100AC00009F08BCF8FE39CE90197F1F700C000009C
:100AD000E90183CF8FE39CE90197F1F700C00000A3
:100AE000E9017BCF93E0E916F10409F076CFC50167
:100AF0000E94B2030E94740410933D0200933C02D2
:100B000010933B0200933A0268CF81E090E00E948C
:100B1000D90681E090E090933D0280933C0290934F
:100B20003B0280933A0259CF81E090E090933B02E0
:100B300080933A0210933D0200933C026C2D7D2D70
:100B40008AE090E00E94B00661E070E08BE090E007
:100B50000E94B00642CF0E94C403E82EF92E0E94E4
:100B60002903892B31F08091540290915502892BF1
:100B700071F10E942903892B09F045C022E0E21699
:100B8000F10409F483C00CF051C0E114F10409F43C
:100B900074C0EA94EF2809F020CF81E090E00E9431
:100BA000D90681E090E090933902809338020E9448
:100BB00075018FEF97E92AE3815090402040E1F7DB
:100BC00000C00000109339020093380206CF2FEFC7
:100BD00080E792E0215080409040E1F700C00000A3
:100BE0000E942903892B51F2809154029091550261
:100BF000892B21F681E090E0909355028093540276
:100C0000C3E0D0E0BBCF2FEF80E792E021508040DF
:100C10009040E1F700C000000E942903C1E0D0E04D
:100C2000892B09F0E801CC0FDD1FA8CF23E0E216E5
:100C3000F10409F0D2CE0E943403E82EF92EC80147
:100C40000E94750182E0E816F10409F458C0C4F569
:100C5000E114F10409F44EC0EA94EF2809F0BDCE86
:100C600061E070E08BE090E00E94B00660E070E030
:100C70008AE090E00E94B006B0CE81E090E00E9451
:100C8000D90681E090E00E947501A7CE81E090E056
:100C90000E94D90681E090E090933702809336025B
:100CA0000E9475018FEF97E92AE381509040204020
:100CB000E1F700C0000010933702009336028DCE9A
:100CC00083E0E816F10409F088CE81E090E090938B
:100CD00039028093380290933702809336029093C2
:100CE0003D0280933C0290933B0280933A020E9423
:100CF000D90673CE80E090E00E94D9066ECE61E006
:100D000070E08AE090E00E94B00660E070E08BE066
:100D100090E00E94B00661CEC8010E947202892B49
:100D2000B9F08091520290915302892B31F481E005
:100D300090E09093530280935202029B02C0039969
:100D40004CCE1093530200935202CC2DDD2D45CE94
:100D50008091520290915302892B09F43ECEEDCF3F
:100D6000282F392F862F972F51E040E081309105B1
:100D700069F02A30310561F02B30310581F002979E
:100D8000A9F083E292E091838083089550E0F1CF4F
:100D900050930D0240930E02E1E1F2E0F0CF509348
:100DA0000B0240930C02EFE0F2E0E9CF83E192E026
:100DB000EACFCF93DF93D82FC92F682F792F8AE0FE
:100DC00090E00E94B0066D2F7C2F8BE090E00E9497
:100DD000B006DF91CF91089514BC83E085BD17BCA8
:100DE00018BC81E080936E0086E086BD78940895FB
:100DF000809A819A829A839A849A859A869A879A07
:100E000008950E94F8060E94EC0681E090E00E949E
:100E1000D906089581B3807F81BB81B3E09111022F
:100E2000F091120220915C0230915D02220F331F7B
:100E3000E20FF31F9081892B81BB80915C0290911E
:100E40005D029C012F5F3F4F079729F030935D02B1
:100E500020935C02089520E030E0F8CF81B38F70DA
:100E600081BB81B3E0910F02F091100220915A02F0
:100E700030915B02220F331FE20FF31F208131817B
:100E800022953295307F3227207F3227822B81BBFB
:100E900080915A0290915B029C012F5F3F4F079710
:100EA00029F030935B0220935A02089520E030E04D
:100EB000F8CF1F920F920FB60F9211240BB60F921C
:100EC0002F933F934F935F936F937F938F939F9352
:100ED000AF93BF93EF93FF9380910D0290910E0219
:100EE000892BD9F480910B0290910C02892BC1F4CB
:100EF00086E086BDFF91EF91BF91AF919F918F9159
:100F00007F916F915F914F913F912F910F900BBE09
:100F10000F900FBE0F901F9018950E940A07E2CF06
:100F20000E942E07E5CFE8E6F2E020813181428180
:100F3000538164817581F22FE32F4217530714F414
:100F4000F42FE52F8F2F9E2F681779070CF4CB0114
:100F5000241735070CF49A01261737070CF49B0168
:100F6000281B390B2B30310514F084E690E00895EE
:100F7000E2E6F2E020813181428153816481758112
:100F8000F22FE32F4217530714F4F42FE52F8F2F7E
:100F90009E2F681779070CF4CB01241735070CF442
:100FA0009A01261737070CF49B01281B390B2B30AD
:100FB000310514F084E690E00895F894E0E9F0E05B
:100FC000808182688083E1E9F0E080818A618083AA
:100FD00080E090E8909397008093960084E190E001
:100FE000909399008093980080EC92E190939B00FD
:100FF00080939A006B9AE1E7F0E0808184628083BD
:10100000E8E6F0E0808184608083789408958F938F
:101010008FB78F938BB78F93EF93FF9380913302AA
:10102000880F80933302809133028032A9F080913F
:1010300033028830A9F08091330280936D00E1E79C
:10104000F0E0808184608083FF91EF918F918BBF6E
:101050008F918FBF8F91189582E080933302E7CFF5
:1010600080E180933302E7CF1F920F920FB60F9269
:1010700011240BB60F922F933F934F935F936F936F
:101080007F938F939F93AF93BF93EF93FF93CF93F0
:10109000DF9300D00F92CDB7DEB78091330282305C
:1010A000C9F180913302843009F485C08091330204
:1010B000803109F4D1C010926D008091600290914E
:1010C0006102039724F010926102109260028091F5
:1010D0005E0290915F02039724F010925F021092DB
:1010E0005E020F900F900F900F90DF91CF91FF91C4
:1010F000EF91BF91AF919F918F917F916F915F9190
:101100004F913F912F910F900BBE0F900FBE0F90FC
:101110001F90189580919600909197008656914166
:1011200096958795969587959C0140E050E0298398
:101130003A834B835C83CA01B9010E94D50A28E235
:101140003EE74CE05DE369837A838B839C8369810E
:101150007A818B819C810E943B0B69837A838B838C
:101160009C8369817A818B819C810E94A60A462F8B
:10117000572F5093710240937002809170029091AA
:101180007102892B09F497CF20917002309171027E
:1011900080915E0290915F02AC014F5F5F4F509370
:1011A0005F0240935E02880F991FFC01EE59FD4FCC
:1011B0003183208380CF809196009091970086564E
:1011C000914196958795969587959C0140E050E0D2
:1011D00029833A834B835C83CA01B9010E94D50AF3
:1011E00028E23EE74CE05DE369837A838B839C834E
:1011F00069817A818B819C810E943B0B69837A8310
:101200008B839C8369817A818B819C810E94A60A51
:10121000462F572F509373024093720280917202AF
:1012200090917302892B09F446CF2091720230917C
:1012300073028091600290916102AC014F5F5F4F39
:101240005093610240936002880F991FFC01E85996
:10125000FD4F318320832FCF80919600909197008E
:101260008656914196958795969587959C0140E085
:1012700050E029833A834B835C83CA01B9010E9401
:10128000D50A28E23EE74CE05DE369837A838B83ED
:101290009C8369817A818B819C810E943B0B69834D
:1012A0007A838B839C8369817A818B819C810E9464
:1012B000A60A462F572F50936F0240936E02FBCE23
:1012C0001F920F920FB60F9211240BB60F922F930D
:1012D0003F934F935F936F937F938F939F93AF93BE
:1012E000BF93EF93FF93CF93DF9300D00F92CDB7CF
:1012F000DEB780913302823009F43FC0809133021F
:10130000843009F4AAC080913302803109F085C08D
:10131000809194009091950086569141969587957D
:10132000969587959C0140E050E029833A834B8352
:101330005C83CA01B9010E94D50A28E23EE74CE06D
:101340005DE369837A838B839C8369817A818B8156
:101350009C810E943B0B69837A838B839C83698188
:101360007A818B819C810E94A60A462F572F509329
:101370006F0240936E02139850C080919400909138
:1013800095008656914196958795969587959C01EF
:1013900040E050E029833A834B835C83CA01B90162
:1013A0000E94D50A28E23EE74CE05DE369837A8338
:1013B0008B839C8369817A818B819C810E943B0B0A
:1013C00069837A838B839C8369817A818B819C81F9
:1013D0000E94A60A462F572F509371024093700225
:1013E0008091700290917102892BB1F0209170026E
:1013F0003091710280915E0290915F02AC014F5F6B
:101400005F4F50935F0240935E02880F991FFC016B
:10141000EE59FD4F318320831098E1E7F0E08081A1
:101420008F7D808310926D000F900F900F900F9022
:10143000DF91CF91FF91EF91BF91AF919F918F91EC
:101440007F916F915F914F913F912F910F900BBEC4
:101450000F900FBE0F901F9018958091940090915F
:1014600095008656914196958795969587959C010E
:1014700040E050E029833A834B835C83CA01B90181
:101480000E94D50A28E23EE74CE05DE369837A8357
:101490008B839C8369817A818B819C810E943B0B29
:1014A00069837A838B839C8369817A818B819C8118
:1014B0000E94A60A462F572F509373024093720240
:1014C0008091720290917302892BB1F02091720287
:1014D000309173028091600290916102AC014F5F84
:1014E0005F4F5093610240936002880F991FFC0187
:1014F000E859FD4F3183208311988FCF97FB072E3A
:1015000016F4009407D077FD09D00E94920A07FCD8
:1015100005D03EF4909581959F4F08957095619503
:101520007F4F0895AA1BBB1B51E107C0AA1FBB1F19
:10153000A617B70710F0A61BB70B881F991F5A955F
:10154000A9F780959095BC01CD0108950E941A0BD2
:1015500088F09F5798F0B92F9927B751B0F0E1F074
:10156000660F771F881F991F1AF0BA95C9F714C024
:10157000B13091F00E94340BB1E008950C94340B1B
:10158000672F782F8827B85F39F0B93FCCF386955D
:1015900077956795B395D9F73EF4909580957095BA
:1015A00061957F4F8F4F9F4F0895E89409C097FB37
:1015B0003EF490958095709561957F4F8F4F9F4F2A
:1015C0009923A9F0F92F96E9BB279395F69587956E
:1015D00077956795B795F111F8CFFAF4BB0F11F431
:1015E00060FF1BC06F5F7F4F8F4F9F4F16C08823D8
:1015F00011F096E911C0772321F09EE8872F762F0E
:1016000005C0662371F096E8862F70E060E02AF04E
:101610009A95660F771F881FDAF7880F969587953A
:1016200097F9089557FD9058440F551F59F05F3FA3
:1016300071F04795880F97FB991F61F09F3F79F0F4
:1016400087950895121613061406551FF2CF469576
:10165000F1DF08C0161617061806991FF1CF8695F8
:101660007105610508940895E894BB2766277727DC
:10167000CB0197F908950E944E0B0C94BF0B0E946A
:10168000B10B38F00E94B80B20F0952311F00C94A8
:10169000A80B0C94AE0B11240C94350B0E94120B6A
:1016A00070F3959FC1F3950F50E0551F629FF001B5
:1016B000729FBB27F00DB11D639FAA27F00DB11DCE
:1016C000AA1F649F6627B00DA11D661F829F222757
:1016D000B00DA11D621F739FB00DA11D621F839FDE
:1016E000A00D611D221F749F3327A00D611D231FB4
:1016F000849F600D211D822F762F6A2F11249F5702
:1017000050409AF0F1F088234AF0EE0FFF1FBB1F04
:10171000661F771F881F91505040A9F79E3F5105C3
:1017200080F00C94A80B0C94350B5F3FE4F3983ECB
:10173000D4F3869577956795B795F795E7959F5F6D
:10174000C1F7FE2B880F911D9695879597F90895FF
:1017500097F99F6780E870E060E008959FEF80EC64
:10176000089500240A941616170618060906089507
:1017700000240A9412161306140605060895092E6D
:101780000394000C11F4882352F0BB0F40F4BF2BDC
:1017900011F460FF04C06F5F7F4F8F4F9F4F08951C
:0417A000F894FFCFEB
:1017A400039F250D9949411F0109FD0100010023F3
:1017B400022302090008000C0004000600020003D2
:1017C400000100010003000200060004000C0008F0
:0417D4000009000206
:00000001FF
