:100000000C9472000C9493000C9493000C94930045
:100010000C9493000C9493000C9493000C94930014
:100020000C9493000C9493000C9493000C9454063D
:100030000C9493000C9493000C9493000C9408017E
:100040000C9493000C9493000C9493000C949300E4
:100050000C9493000C9493000C9493000C94EE0475
:100060000C9493000C9493000C9493000C949300C4
:100070000C9493000C9493000C9493000C947705CB
:100080000C9493000C9452050C9493000C949300E0
:100090000C9493000C9493000C9493000C94930094
:1000A0000C9493000C9493000C9493000C94930084
:1000B0000C9493000C94E9010C9493000C9493001D
:1000C0000C9493000C9493000C9493000C94930064
:1000D0000C9493000C9493000C9493000C94930054
:1000E0000C94930011241FBECFEFD1E2DEBFCDBF31
:1000F00000E00CBF12E0A0E0B2E0ECECF0E100E0C8
:100100000BBF02C007900D92AA32B107D9F722E0C7
:10011000AAE2B2E001C01D92A035B207E1F70E9449
:1001200063030C9464080C9400008FEF80930B0120
:1001300085B18C6085B9089585B194E0892785B92A
:10014000089585B198E0892785B90895EBE0F1E03D
:10015000808191E0892780830895EBE0F1E0808140
:1001600092E0892780830895892B31F0EBE0F1E05C
:100170008081846080830895EBE0F1E080818B7F53
:1001800080830895892B31F0EBE0F1E08081886075
:1001900080830895EBE0F1E08081877F808308957C
:1001A000892B31F0EBE0F1E080818061808308955C
:1001B000EBE0F1E080818F7E80830895892B31F020
:1001C000EBE0F1E08081806280830895EBE0F1E074
:1001D00080818F7D80830895892B31F0EBE0F1E001
:1001E0008081806480830895EBE0F1E080818F7BE3
:1001F00080830895892B31F0EBE0F1E08081806805
:1002000080830895EBE0F1E080818F77808308950B
:100210001F920F920FB60F9211240BB60F922F93CD
:100220003F934F935F936F937F938F939F93AF937E
:10023000BF93EF93FF9380912A0290912B02019636
:1002400090932B0280932A0280912A0290912B0294
:100250008C32914099F0FF91EF91BF91AF919F91B6
:100260008F917F916F915F914F913F912F910F905F
:100270000BBE0F900FBE0F901F9018958091320209
:1002800090913302892BB9F4809130029091310220
:10029000892BA1F480912E0290912F02892B89F451
:1002A00080912C0290912D02892B71F410922B02D7
:1002B00010922A02D0CF0E94A600E6CF0E94AD0085
:1002C000E9CF0E949C00ECCF0E94A100EFCF1092DA
:1002D000B00083E08093B1001092B3001092B4009C
:1002E00081E08093700086E08093B20008951092C0
:1002F0003B0210923A021092A5001092A40082E0F4
:100300008093A10008951092A100809136029091EF
:1003100037020196909337028093360208958091B8
:10032000360290913702039744F0109237021092F0
:100330003602109239021092380208952091380244
:10034000309139022130310569F021E030E03093FD
:1003500039022093380280933402909335020E9430
:10036000770108950E948F0108951092A0001092C5
:10037000A9001092A8001092AB001092AA0081E090
:100380008093720008950E94B5010895282F392F97
:100390002115310521F02130310571F0089561E01A
:1003A00070E08AE090E00E94430460E070E08BE03F
:1003B00090E00E944304089560E070E08AE090E0DD
:1003C0000E94430461E070E08BE090E00E944304EF
:1003D00008951F920F920FB60F9211240BB60F9231
:1003E0002F933F934F935F936F937F938F939F933D
:1003F000AF93BF93EF93FF9380913A0290913B02AA
:10040000019690933B0280933A0280913A02909138
:100410003B028A359105D1F080913A0290913B02DE
:100420008F3C910519F1FF91EF91BF91AF919F9191
:100430008F917F916F915F914F913F912F910F908D
:100440000BBE0F900FBE0F901F9018958091360233
:1004500090913702029739F08091340290913502E1
:100460000E94C601D9CF0E948301D6CF80E090E0E0
:100470000E946C048091360290913702009731F40B
:100480002EEC3FEF30933B0220933A02019690937B
:10049000370280933602C7CF80B1039905C082FB33
:1004A000882780F990E0089582E090E0089586B171
:1004B00086958695869591E08927817090E00895CC
:1004C00086B191E08927817090E00895319B0BC03F
:1004D00026B12695269531E02327822F817090E062
:1004E000880F991F089581E090E0089580E090E0E2
:1004F00061E070E037B1AB01082E02C0440F551F18
:100500000A94E2F7242F2095232327B928B1242B1E
:1005100028B901968530910569F7089580E090E04B
:1005200061E070E031B1AB01082E02C0440F551FED
:100530000A94E2F7242F2095232321B922B1242BFA
:1005400022B901968430910569F708950E949500BB
:100550000E9428050E9494040E948E020E94760246
:100560000E94C3010895009902C0019B07C0009B2F
:1005700008C0019B09C083E090E0089580E090E00E
:10058000089581E090E0089582E090E00895282F9A
:10059000392F213382E0380731F0253F81E03807D9
:1005A0002CF4822F089581E090E0089584E690E095
:1005B000089580914A0290914B020E94C7020E97C3
:1005C0000CF457C080914E0290914F020E94C702D6
:1005D0000A97D4F480913E0290913F02892B69F0F2
:1005E00080914E0290914F020E94C7020B9794F0A7
:1005F00010923F0210923E020DC081E090E0909375
:100600003F0280933E02089580913E0290913F0206
:10061000892B31F780914C0290914D020E94C702C4
:100620000A97F4F480913C0290913D02892B79F075
:1006300080914C0290914D020E94C7020B97E4F00A
:1006400010923D0210923C0283E090E0089581E018
:1006500090E090933D0280933C0282E090E0089508
:1006600080913C0290913D02892B11F783E090E04C
:10067000089580E090E0089583E090E00895282FA9
:10068000392F233331055CF4C9010B97039760F0D0
:100690002A30310574F02F30310584F4089581E05B
:1006A00090E00E946C04089581E090E00E946C0448
:1006B000089582E090E00E946C04089580E090E04C
:1006C0000E946C04EBCF0E94A60280E090E00E94A2
:1006D0006C04C0E0D0E0E12CF12C5BC00E94600211
:1006E000892B09F060C0C230D10509F492C03CF5F5
:1006F000C130D10509F04DC0C0904A02D0904B02E4
:100700000E94B302082F192F0230110509F474C09A
:100710000CF064C00115110509F469C00130110520
:10072000C1F562E070E08BE090E00E94430461E07C
:1007300070E08AE090E00E944304E8012AC0C330E0
:10074000D10539F580914002909141020E949E01AD
:10075000892BF9F091E080E0209140023091410234
:10076000232B11F09E2D8F2D9093400280934102F8
:1007700010C081E090E00E946C040E945702C1E02A
:10078000D0E0892B11F4CE2DDF2DCC0FDD1FCC0F47
:10079000DD1F0E945702892B61F7C430D10549F350
:1007A000209709F09BCF81E090E00E946C040E94AA
:1007B0006002C82FD92F209761F30E946602C82FCC
:1007C000D92FC130D10529F381E090E0229711F0B3
:1007D0008E2D9F2DEC01CC0FDD1FDBCF03301105DB
:1007E000C1F6C6010E94C7020E943F03D2CF81E03A
:1007F00090E00E946C04CDCF62E070E08AE090E06F
:100800000E94430461E070E08BE090E00E944304AA
:10081000C0CF0E94D902082F192F0230110521F1F3
:10082000ACF401151105D9F00130110509F0B1CF73
:1008300081E090E00E946C049FEF23ED80E39150F3
:1008400020408040E1F700C00000A3CF0330110535
:1008500009F09FCF8E2D9F2D0E946C049ACF81E0CE
:1008600090E00E946C0495CF81E090E00E946C04BF
:100870009FEF23ED80E3915020408040E1F700C0DE
:100880000000E80186CF282F392F862F972F51E0BF
:1008900040E08130910569F02A30310561F02B305C
:1008A000310581F00297A9F088E192E0918380837D
:1008B000089550E0F1CF5093020240930302E6E026
:1008C000F2E0F0CF5093000240930102E4E0F2E046
:1008D000E9CF88E092E0EACFCF93DF93D82FC92FFA
:1008E000682F792F8AE090E00E9443046D2F7C2FBF
:1008F0008BE090E00E944304DF91CF91089514BCF7
:1009000083E085BD17BC18BC81E080936E0086E053
:1009100086BD78940895809A819A829A839A849A5F
:10092000859A869A879A08950E948B0460E070E009
:100930008AE090E00E9443040E947F04089581B3FE
:10094000807F81BB81B3E0910602F0910702209184
:10095000480230914902220F331FE20FF31F9081AA
:10096000892B81BB80914802909149029C012F5FA5
:100970003F4F079729F0309349022093480208958A
:1009800020E030E0F8CF81B38F7081BB81B3E0917C
:100990000402F09105022091460230914702220F95
:1009A000331FE20FF31F2081318122953295307F72
:1009B0003227207F3227822B81BB80914602909183
:1009C00047029C012F5F3F4F079729F03093470262
:1009D00020934602089520E030E0F8CF1F920F9256
:1009E0000FB60F9211240BB60F922F933F934F9394
:1009F0005F936F937F938F939F93AF93BF93EF9387
:100A0000FF938091020290910302892BD9F4809187
:100A1000000290910102892BC1F486E086BDFF910E
:100A2000EF91BF91AF919F918F917F916F915F9166
:100A30004F913F912F910F900BBE0F900FBE0F90D3
:100A40001F9018950E949F04E2CF0E94C304E5CF37
:100A5000F894E0E9F0E0808182688083E1E9F0E0E9
:100A600080818A61808380E090E8909397008093F2
:100A7000960084E190E090939900809398008CE731
:100A800095E190939B0080939A006B9AE1E7F0E0E8
:100A9000808184628083E8E6F0E0808184608083E6
:100AA000789408958F938FB78F938BB78F93EF932D
:100AB000FF9380912802880F80932802809128025A
:100AC000803489F08091280280936D00E1E7F0E0A6
:100AD000808184608083FF91EF918F918BBF8F9194
:100AE0008FBF8F91189582E080932802EBCF1F92E1
:100AF0000F920FB60F9211240BB60F922F933F93C4
:100B00004F935F936F937F938F939F93AF93BF9315
:100B1000EF93FF93CF93DF9300D00F92CDB7DEB763
:100B2000809128028230F1F180912802843009F40A
:100B300087C080912802803109F067C080919600BB
:100B400090919700865691419695879596958795B1
:100B50009C0140E050E029833A834B835C83CA01C7
:100B6000B9010E94690728E23EE74CE05DE3698332
:100B70007A838B839C8369817A818B819C810E949B
:100B8000CF0769837A838B839C8369817A818B8188
:100B90009C810E943A07462F572F50934B02409357
:100BA0004A0233C0809196009091970086569141F9
:100BB00096958795969587959C0140E050E029830E
:100BC0003A834B835C83CA01B9010E94690728E21A
:100BD0003EE74CE05DE369837A838B839C83698184
:100BE0007A818B819C810E94CF0769837A838B8372
:100BF0009C8369817A818B819C810E943A07462F70
:100C0000572F50934D0240934C0210926D000F905D
:100C10000F900F900F90DF91CF91FF91EF91BF91C7
:100C2000AF919F918F917F916F915F914F913F9184
:100C30002F910F900BBE0F900FBE0F901F90189525
:100C40008091960090919700865691419695879550
:100C5000969587959C0140E050E029833A834B8329
:100C60005C83CA01B9010E94690728E23EE74CE0B3
:100C70005DE369837A838B839C8369817A818B812D
:100C80009C810E94CF0769837A838B839C836981CF
:100C90007A818B819C810E943A07462F572F50936F
:100CA0004F0240934E02B1CF1F920F920FB60F9298
:100CB00011240BB60F922F933F934F935F936F9333
:100CC0007F938F939F93AF93BF93EF93FF93CF93B4
:100CD000DF9300D00F92CDB7DEB78091280282302B
:100CE00009F43FC080912802843009F48EC08091BD
:100CF0002802803109F069C080919400909195009C
:100D00008656914196958795969587959C0140E0EA
:100D100050E029833A834B835C83CA01B9010E9466
:100D2000690728E23EE74CE05DE369837A838B83C1
:100D30009C8369817A818B819C810E94CF07698322
:100D40007A838B839C8369817A818B819C810E94C9
:100D50003A07462F572F50934B0240934A0213985D
:100D600034C080919400909195008656914196955B
:100D70008795969587959C0140E050E029833A83BA
:100D80004B835C83CA01B9010E94690728E23EE7F0
:100D90004CE05DE369837A838B839C8369817A81EC
:100DA0008B819C810E94CF0769837A838B839C838C
:100DB00069817A818B819C810E943A07462F572F47
:100DC00050934D0240934C021098E1E7F0E080818F
:100DD0008F7D808310926D000F900F900F900F9079
:100DE000DF91CF91FF91EF91BF91AF919F918F9143
:100DF0007F916F915F914F913F912F910F900BBE1B
:100E00000F900FBE0F901F901895809194009091B5
:100E100095008656914196958795969587959C0164
:100E200040E050E029833A834B835C83CA01B901D7
:100E30000E94690728E23EE74CE05DE369837A831C
:100E40008B839C8369817A818B819C810E94CF07EF
:100E500069837A838B839C8369817A818B819C816E
:100E60000E943A07462F572F50934F0240934E024D
:100E70001198ABCF0E94AE0788F09F5798F0B92F1A
:100E80009927B751B0F0E1F0660F771F881F991FBF
:100E90001AF0BA95C9F714C0B13091F00E94C80792
:100EA000B1E008950C94C807672F782F8827B85FA2
:100EB00039F0B93FCCF3869577956795B395D9F717
:100EC0003EF490958095709561957F4F8F4F9F4F21
:100ED0000895E89409C097FB3EF49095809570952D
:100EE00061957F4F8F4F9F4F9923A9F0F92F96E976
:100EF000BB279395F695879577956795B795F111EB
:100F0000F8CFFAF4BB0F11F460FF1BC06F5F7F4F87
:100F10008F4F9F4F16C0882311F096E911C0772399
:100F200021F09EE8872F762F05C0662371F096E8A2
:100F3000862F70E060E02AF09A95660F771F881F71
:100F4000DAF7880F9695879597F9089557FD905889
:100F5000440F551F59F05F3F71F04795880F97FB7D
:100F6000991F61F09F3F79F0879508951216130637
:100F70001406551FF2CF4695F1DF08C01616170666
:100F80001806991FF1CF869571056105089408959B
:100F9000E894BB2766277727CB0197F908950E942D
:100FA000E2070C9453080E94450838F00E944C0850
:100FB00020F0952311F00C943C080C944208112465
:100FC0000C94C9070E94A60770F3959FC1F3950F73
:100FD00050E0551F629FF001729FBB27F00DB11DBD
:100FE000639FAA27F00DB11DAA1F649F6627B00D4D
:100FF000A11D661F829F2227B00DA11D621F739F36
:10100000B00DA11D621F839FA00D611D221F749F43
:101010003327A00D611D231F849F600D211D822F8A
:10102000762F6A2F11249F5750409AF0F1F08823B1
:101030004AF0EE0FFF1FBB1F661F771F881F9150DE
:101040005040A9F79E3F510580F00C943C080C9449
:10105000C9075F3FE4F3983ED4F38695779567958B
:10106000B795F795E7959F5FC1F7FE2B880F911D08
:101070009695879597F9089597F99F6780E870E0AE
:1010800060E008959FEF80EC089500240A941616FE
:10109000170618060906089500240A941216130666
:1010A000140605060895092E0394000C11F48823F4
:1010B00052F0BB0F40F4BF2B11F460FF04C06F5F10
:0C10C0007F4F8F4F9F4F0895F894FFCF93
:1010CC000100010018021802090008000C000400BD
:1010DC0006000200030001000100030002000600EC
:0A10EC0004000C00080009000200D7
:00000001FF
