:100000000C9472000C9493000C9493000C94930045
:100010000C9493000C9493000C9493000C94930014
:100020000C9493000C9493000C9493000C9463092B
:100030000C9493000C9493000C9493000C94C701BF
:100040000C9493000C9493000C9493000C949300E4
:100050000C9493000C9493000C9493000C94AB07B5
:100060000C9493000C9493000C9493000C949300C4
:100070000C9493000C9493000C9493000C948608B9
:100080000C9493000C9459080C9493000C949300D6
:100090000C9493000C9493000C9493000C94930094
:1000A0000C9493000C9493000C9493000C94930084
:1000B0000C9493000C94C6020C9493000C9493003F
:1000C0000C9493000C9493000C9493000C94930064
:1000D0000C9493000C9493000C9493000C94930054
:1000E0000C94930011241FBECFEFD1E2DEBFCDBF31
:1000F00000E00CBF12E0A0E0B2E0E2EDF7E100E0CA
:100100000BBF02C007900D92A633B107D9F722E0CA
:10011000A6E3B2E001C01D92A637B207E1F70E9444
:10012000EF040C94E70B0C940000E1E0F1E0808117
:1001300080668083249AE2E0F1E080818F7B808377
:1001400080818F7D8083089520E030E0682F880FC4
:10015000770BE2E0F1E00CC02C98908190649083E2
:1001600090819F7B90832F5F3F4F2830310559F05E
:10017000AB01022E02C0559547950A94E2F740FF65
:10018000EBCF2C9AEACF08959C012D5F3F4F81E081
:1001900001C0880F2A95EAF70E94A4000895E2E0C2
:1001A000F1E080818062808380818F7D80830895EB
:1001B0008F929F92AF92BF92CF92DF92EF92FF9277
:1001C0000F931F93CF93DF93C82FD92F2097E1F17F
:1001D000C9318CEFD80708F44DC0D195C195D1092C
:1001E00088248394912C00E010E00F2EFAE0CF2EAB
:1001F000D12CF02DCE01B6010E94950AA62EB72E65
:10020000FC01E050FE4F80810E94A4007E01CA2DB7
:10021000DB2D58010F5F1F4FC8010E94C4000E94D0
:10022000CF008AE0E816F1042CF78928C1F4DF91A9
:10023000CF911F910F91FF90EF90DF90CF90BF90E3
:10024000AF909F908F900895809100020E94A4002B
:1002500081E090E00E94C4000E94CF00E8CF80912E
:100260000A020E94A400C50102960E94C4000E94D6
:10027000CF00DDCF812C912C1C161D060CF4B3CFC2
:10028000D6CF85B194E0892785B9089585B198E0E6
:10029000892785B90895EBE0F1E0808191E0892715
:1002A00080830895EBE0F1E0808192E089278083EC
:1002B0000895892B31F0EBE0F1E080818460808348
:1002C0000895EBE0F1E080818B7F80830895892B96
:1002D00031F0EBE0F1E08081886080830895EBE00D
:1002E000F1E08081877F80830895CF93DF93D82FBB
:1002F000C92F0E9459018D2F9C2F0E946701DF9109
:10030000CF910895892B31F0EBE0F1E0808180619D
:1003100080830895EBE0F1E080818F7E80830895F3
:10032000892B31F0EBE0F1E08081806280830895D9
:10033000EBE0F1E080818F7D80830895CF93DF93A0
:10034000D82FC92F0E9482018D2F9C2F0E949001CF
:10035000DF91CF910895892B31F0EBE0F1E08081BE
:10036000806480830895EBE0F1E080818F7B80835F
:100370000895892B31F0EBE0F1E080818068808383
:100380000895EBE0F1E080818F77808308951F92DC
:100390000F920FB60F9211240BB60F922F933F932B
:1003A0004F935F936F937F938F939F93AF93BF937D
:1003B000EF93FF93809136029091370201969093CC
:1003C00037028093360280913602909137028C3248
:1003D000914099F0FF91EF91BF91AF919F918F91D3
:1003E0007F916F915F914F913F912F910F900BBE35
:1003F0000F900FBE0F901F90189580913E02909124
:100400003F02892B19F5EBE0F1E080818E7F80833C
:1004100080913C0290913D02892BD9F4EBE0F1E010
:1004200080818D7F808380913A0290913B02892B5D
:1004300099F42A988091380290913902892B79F4A5
:100440002B981092370210923602C4CF0E944B01B3
:10045000DFCF0E945201E7CF0E944101EBCF0E9403
:100460004601EFCF1092B00083E08093B10010926C
:10047000B3001092B40081E08093700086E0809316
:10048000B20008958FEF80930A0184B18C6084B923
:100490000E94320208951092470210924602109272
:1004A000A5001092A40082E08093A100089510920C
:1004B000A1008091420290914302019690934302E1
:1004C00080934202089580914202909143020397E3
:1004D00044F0109243021092420210924502109290
:1004E00044020895CF93DF93D82FC92F80914402FF
:1004F00090914502019799F080E090E00E942B07CF
:1005000081E090E09093450280934402D0934002B2
:10051000C09341020E944B02DF91CF9108950E9447
:100520006302FACF1092A0001092A9001092A800C6
:100530001092AB001092AA0081E08093720008959F
:100540000E9492020895282F392F2115310521F09C
:100550002130310571F0089561E070E08AE090E0AB
:100560000E94020760E070E08BE090E00E940207CA
:10057000089560E070E08AE090E00E94020761E088
:1005800070E08BE090E00E94020708951F920F92A6
:100590000FB60F9211240BB60F922F933F934F93E8
:1005A0005F936F937F938F939F93AF93BF93EF93DB
:1005B000FF938091460290914702019690934702E3
:1005C000809346028091460290914702813E9105B8
:1005D000D1F080914602909147028635914019F101
:1005E000FF91EF91BF91AF919F918F917F916F910B
:1005F0005F914F913F912F910F900BBE0F900FBEC7
:100600000F901F901895809142029091430202979B
:1006100039F080914002909141020E94A302D9CF0B
:100620000E945702D6CF80E090E00E942B07809175
:10063000420290914302009721F4109247021092D7
:10064000460201969093430280934202C9CF029BD7
:1006500006C080B183FB882780F990E0089580E090
:1006600090E00895029905C0039906C080E090E0EB
:10067000089581E090E0089582E090E0089586B1C9
:1006800086958695869591E08927817090E00895FA
:1006900086B191E08927817090E00895329B0AC06D
:1006A00026B1269531E02327822F817090E0880FB4
:1006B000991F089581E090E0089580E090E061E066
:1006C00070E037B1AB01082E02C0440F551F0A94E9
:1006D000E2F7242F2095232327B928B1242B28B90A
:1006E00001968530910569F7089580E090E061E01A
:1006F00070E031B1AB01082E02C0440F551F0A94BF
:10070000E2F7242F2095232321B922B1242B22B9EB
:1007100001968430910569F708950E9442020E9473
:100720002F080E9453070E9475030E945D030E94D8
:10073000A0020E9495000895009902C0019B07C085
:10074000009B08C0019B09C083E090E0089580E011
:1007500090E0089581E090E0089582E090E00895AF
:10076000282F392F213382E0380731F0243F81E0F0
:1007700038072CF4822F089581E090E0089584E6F4
:1007800090E008950F931F93CF93DF930E94E507A6
:10079000C82FD92F0E940A08082F192F80916C02A8
:1007A00090916D020E94B00344970CF4D4C0CA30FB
:1007B000D1057CF58091520290915302892B79F5F5
:1007C0008091500290915102823091058CF01092EC
:1007D00051021092500281E090E090935302809376
:1007E000520288EE93E00E94D80081E090E0B5C00C
:1007F000019690935102809350022FEF8BED95E07C
:10080000215080409040E1F700C0000083E090E07C
:10081000A4C08091520290915302892B21F50A3095
:1008200011050CF05FC080914E0290914F02892B10
:1008300009F098C080914C0290914D028230910550
:100840000CF03FC0019690934D0280934C022FEF25
:100850008BED95E0215080409040E1F700C0000012
:1008600083E090E07AC02B97D4F28091500290916F
:100870005102823091057CF401969093510280934D
:1008800050022FEF8BED95E0215080409040E1F732
:1008900000C00000C4CF1092530210925202109276
:1008A00051021092500280ED97E00E94D8002FEF85
:1008B00081EE94E0215080409040E1F700C00000BC
:1008C000AECF10924D0210924C0281E090E09093D6
:1008D0004F0280934E028AE090E00E94D80082E0AE
:1008E00090E03BC080914E0290914F02892BE9F13C
:1008F0000B301105ECF180914C0290914D02823049
:1009000091058CF4019690934D0280934C022FEF49
:100910008BED95E0215080409040E1F700C0000051
:1009200083E090E01AC010924F0210924E02109293
:100930004D0210924C0284E190E00E94D8002FEF0B
:1009400081EE94E0215080409040E1F700C000002B
:1009500083E090E002C080E090E0DF91CF911F91B2
:100960000F91089583E090E0F8CF83E090E0F5CF19
:1009700083E090E0F2CF282F392F253131055CF448
:10098000C9010597039780F024303105B4F0293070
:100990003105E4F4089581E090E00E942B0780E0A7
:1009A00090E00E947501089581E090E00E942B077D
:1009B00080E090E00E947501089582E090E00E943E
:1009C0002B0781E090E00E947501089580E090E09F
:1009D0000E942B0780E090E00E947501DBCF0E940F
:1009E0008D0380E090E00E94D80081E090E00E94BA
:1009F0009E01C0E0D0E000E010E06894CC24C1F893
:100A0000D12C32C0C330D10509F4CFC1C430D105D7
:100A100059F581E090E00E942B0781E090E00E9470
:100A2000B90181E090E00E94AB0181E090E09093F9
:100A30003F0280933E0290933D0280933C0290934C
:100A40003B0280933A0290933902809338020E94CD
:100A500075010E943F03C1E0D0E0892B09F4E80151
:100A6000CC0FDD1FCC0FDD1F0E943F03892B89F6C1
:100A7000C230D10509F4ADC02CF6209789F1C13000
:100A8000D10591F7A0906C02B0906D020E949C037A
:100A9000E82EF92E92E0E916F10409F484C00CF076
:100AA00060C0E114F10409F46FC081E0E816F104BC
:100AB000D9F681E090E090933F0280933E0210933C
:100AC0003D0200933C026C2D7D2D8BE090E00E9456
:100AD0000207B8018AE090E00E940207E701C4CF54
:100AE00081E090E00E942B07C8010E94B901C80173
:100AF0000E94AB0110933F0200933E0210933D020F
:100B000000933C0210933B0200933A021093390287
:100B100000933802C8010E9475010E944803282FE3
:100B2000392F2115310511F4E9019ECF0E944E03A2
:100B3000282F392F2130310561F02230310509F09D
:100B400093CF8FE39CE90197F1F700C00000E90122
:100B50008BCF8FE39CE90197F1F700C00000E9011A
:100B600083CF93E0E916F10409F07ECFC5010E941E
:100B7000B0030E94BB0410933F0200933E02109307
:100B80003D0200933C0270CF81E090E00E942B0771
:100B900081E090E090933F0280933E0290933D026B
:100BA00080933C0261CF81E090E090933D0280937E
:100BB0003C0210933F0200933E026C2D7D2D8AE093
:100BC00090E00E940207B8018BE090E00E940207CB
:100BD0004BCF0E94C203E82EF92E80910B02909118
:100BE0000C028E159F0521F0F0920C02E0920B0290
:100BF0000E942703892B31F0809156029091570271
:100C0000892B71F10E942703892B09F045C022E04E
:100C1000E216F10409F483C00CF051C0E114F104B0
:100C200009F474C0EA94EF2809F01ECF81E090E047
:100C30000E942B0781E090E090933B0280933A0260
:100C40000E9475018FEF97E92AE381509040204080
:100C5000E1F700C0000010933B0200933A0204CF7A
:100C60002FEF80E792E0215080409040E1F700C0F4
:100C700000000E942703892B51F280915602909127
:100C80005702892B21F681E090E0909357028093E0
:100C90005602C3E0D0E0BBCF2FEF80E792E02150B7
:100CA00080409040E1F700C000000E942703C1E0AF
:100CB000D0E0892B09F0E801CC0FDD1FA8CF23E09D
:100CC000E216F10409F0D0CE0E943203E82EF92E8C
:100CD000C8010E94750182E0E816F10409F458C0C9
:100CE000C4F5E114F10409F44EC0EA94EF2809F0C8
:100CF000BBCE61E070E08BE090E00E94020760E014
:100D000070E08AE090E00E940207AECE81E090E0C1
:100D10000E942B0781E090E00E947501A5CE81E042
:100D200090E00E942B0781E090E09093390280933D
:100D300038020E9475018FEF97E92AE381509040B5
:100D40002040E1F700C00000109339020093380200
:100D50008BCE83E0E816F10409F086CE81E090E0C6
:100D600090933B0280933A02909339028093380229
:100D700090933F0280933E0290933D0280933C0209
:100D80000E942B0771CE80E090E00E942B076CCE72
:100D900061E070E08AE090E00E94020760E070E0AD
:100DA0008BE090E00E9402075FCEC8010E947202B1
:100DB000892B01F18091540290915502892B31F4D5
:100DC00081E090E09093550280935402029B02C010
:100DD00003994ACE10935502009354029FEF25EADF
:100DE0008EE0915020408040E1F700C00000CC2D03
:100DF000DD2D3ACE8091540290915502892B09F451
:100E000033CEE4CF282F392F862F972F51E040E0A3
:100E10008130910569F02A30310561F02B303105C0
:100E200081F00297A9F085E292E091838083089592
:100E300050E0F1CF50930F0240931002E3E1F2E053
:100E4000F0CF50930D0240930E02E1E1F2E0E9CFC2
:100E500085E192E0EACFCF93DF93D82FC92F682F97
:100E6000792F8AE090E00E9402076D2F7C2F8BE0A3
:100E700090E00E940207DF91CF91089514BC83E0B7
:100E800085BD17BC18BC81E080936E0086E086BDEE
:100E900078940895809A819A829A839A849A859AFE
:100EA000869A879A08950E944A070E943E0781E029
:100EB00090E00E942B07089581B3807F81BB81B3AE
:100EC000E0911302F091140220915E0230915F02D2
:100ED000220F331FE20FF31F9081892B81BB80917A
:100EE0005E0290915F029C012F5F3F4F079729F0B0
:100EF00030935F0220935E02089520E030E0F8CF47
:100F000081B38F7081BB81B3E0911102F091120225
:100F100020915C0230915D02220F331FE20FF31F1C
:100F20002081318122953295307F3227207F3227F0
:100F3000822B81BB80915C0290915D029C012F5FAE
:100F40003F4F079729F030935D0220935C0208958C
:100F500020E030E0F8CF1F920F920FB60F921124CD
:100F60000BB60F922F933F934F935F936F937F93A3
:100F70008F939F93AF93BF93EF93FF9380910F0253
:100F800090911002892BD9F480910D0290910E025C
:100F9000892BC1F486E086BDFF91EF91BF91AF919F
:100FA0009F918F917F916F915F914F913F912F9181
:100FB0000F900BBE0F900FBE0F901F9018950E94C0
:100FC0005C07E2CF0E948007E5CFE6E6F2E02081F1
:100FD00031814281538164817581F22FE32F421761
:100FE000530714F4F42FE52F8F2F9E2F68177907DE
:100FF0000CF4CB01241735070CF49A012617370798
:101000000CF49B01281B390B2530310514F084E6C4
:1010100090E00895E0E6F2E0208131814281538141
:1010200064817581F22FE32F4217530714F4F42FD4
:10103000E52F8F2F9E2F681779070CF4CB0124170B
:1010400035070CF49A01261737070CF49B01281B6F
:10105000390B2530310514F084E690E00895F894BA
:10106000E0E9F0E0808182688083E1E9F0E080815E
:101070008A61808380E090E8909397008093960047
:1010800084E190E0909399008093980082EF92E140
:1010900090939B0080939A006B9AE1E7F0E0808147
:1010A00084628083E8E6F0E08081846080837894C5
:1010B00008958F938FB78F938BB78F93EF93FF9391
:1010C00080913502880F80933502809135028032FD
:1010D000A9F0809135028830A9F080913502809383
:1010E0006D00E1E7F0E0808184608083FF91EF9103
:1010F0008F918BBF8F918FBF8F91189582E08093D6
:101100003502E7CF80E180933502E7CF1F920F923F
:101110000FB60F9211240BB60F922F933F934F935C
:101120005F936F937F938F939F93AF93BF93EF934F
:10113000FF93CF93DF9300D00F92CDB7DEB78091AE
:1011400035028230F1F180913502843009F487C094
:1011500080913502803109F067C0809196009091AE
:1011600097008656914196958795969587959C010F
:1011700040E050E029833A834B835C83CA01B90184
:101180000E94EC0A28E23EE74CE05DE369837A8343
:101190008B839C8369817A818B819C810E94520B15
:1011A00069837A838B839C8369817A818B819C811B
:1011B0000E94BD0A462F572F50936D0240936C0238
:1011C00033C08091960090919700865691419695F4
:1011D0008795969587959C0140E050E029833A8356
:1011E0004B835C83CA01B9010E94EC0A28E23EE706
:1011F0004CE05DE369837A838B839C8369817A8188
:101200008B819C810E94520B69837A838B839C83A0
:1012100069817A818B819C810E94BD0A462F572F5C
:1012200050936F0240936E0210926D000F900F90DA
:101230000F900F90DF91CF91FF91EF91BF91AF9100
:101240009F918F917F916F915F914F913F912F91DE
:101250000F900BBE0F900FBE0F901F9018958091AE
:101260009600909197008656914196958795969510
:1012700087959C0140E050E029833A834B835C834F
:10128000CA01B9010E94EC0A28E23EE74CE05DE3A6
:1012900069837A838B839C8369817A818B819C812A
:1012A0000E94520B69837A838B839C8369817A8144
:1012B0008B819C810E94BD0A462F572F509371024B
:1012C00040937002B1CF1F920F920FB60F9211246C
:1012D0000BB60F922F933F934F935F936F937F9330
:1012E0008F939F93AF93BF93EF93FF93CF93DF932E
:1012F00000D00F92CDB7DEB780913502823009F46D
:101300003FC080913502843009F4BEC0809135021F
:10131000803109F085C080919400909195008656A7
:10132000914196958795969587959C0140E050E070
:1013300029833A834B835C83CA01B9010E94EC0A7A
:1013400028E23EE74CE05DE369837A838B839C83EC
:1013500069817A818B819C810E94520B69837A8397
:101360008B839C8369817A818B819C810E94BD0AD9
:10137000462F572F50936D0240936C02139850C024
:10138000809194009091950086569141969587950D
:10139000969587959C0140E050E029833A834B83E2
:1013A0005C83CA01B9010E94EC0A28E23EE74CE0E6
:1013B0005DE369837A838B839C8369817A818B81E6
:1013C0009C810E94520B69837A838B839C83698101
:1013D0007A818B819C810E94BD0A462F572F5093A2
:1013E0006F0240936E0280916E0290916F02892B82
:1013F000B1F020916E0230916F0280917202909153
:101400007302AC014F5F5F4F5093730240937202BF
:10141000880F991FFC01E05AFD4F318320831098FB
:101420008091740290917502039724F010927502D6
:10143000109274028091720290917302039724F0CB
:101440001092730210927202E1E7F0E080818F7DCA
:10145000808310926D000F900F900F900F90DF918E
:10146000CF91FF91EF91BF91AF919F918F917F911C
:101470006F915F914F913F912F910F900BBE0F9005
:101480000FBE0F901F901895809194009091950039
:101490008656914196958795969587959C0140E053
:1014A00050E029833A834B835C83CA01B9010E94CF
:1014B000EC0A28E23EE74CE05DE369837A838B83A4
:1014C0009C8369817A818B819C810E94520B698304
:1014D0007A838B839C8369817A818B819C810E9432
:1014E000BD0A462F572F509371024093700280918E
:1014F000700290917102892BB1F0209170023091AD
:1015000071028091740290917502AC014F5F5F4F40
:101510005093750240937402880F991FFC01EA5999
:10152000FD4F3183208311987BCF97FB072E16F454
:10153000009407D077FD09D00E94A90A07FC05D0C6
:101540003EF4909581959F4F0895709561957F4FDA
:101550000895AA1BBB1B51E107C0AA1FBB1FA617FA
:10156000B70710F0A61BB70B881F991F5A95A9F74C
:1015700080959095BC01CD0108950E94310B88F0B3
:101580009F5798F0B92F9927B751B0F0E1F0660F47
:10159000771F881F991F1AF0BA95C9F714C0B13088
:1015A00091F00E944B0BB1E008950C944B0B672F08
:1015B000782F8827B85F39F0B93FCCF386957795B7
:1015C0006795B395D9F73EF49095809570956195A0
:1015D0007F4F8F4F9F4F0895E89409C097FB3EF4CB
:1015E00090958095709561957F4F8F4F9F4F992370
:1015F000A9F0F92F96E9BB279395F69587957795EE
:101600006795B795F111F8CFFAF4BB0F11F460FFAD
:101610001BC06F5F7F4F8F4F9F4F16C0882311F005
:1016200096E911C0772321F09EE8872F762F05C019
:10163000662371F096E8862F70E060E02AF09A95B4
:10164000660F771F881FDAF7880F9695879597F9A9
:10165000089557FD9058440F551F59F05F3F71F0A2
:101660004795880F97FB991F61F09F3F79F0879509
:101670000895121613061406551FF2CF4695F1DF92
:1016800008C0161617061806991FF1CF8695710522
:10169000610508940895E894BB2766277727CB0156
:1016A00097F908950E94650B0C94D60B0E94C80B05
:1016B00038F00E94CF0B20F0952311F00C94BF0B53
:1016C0000C94C50B11240C944C0B0E94290B70F345
:1016D000959FC1F3950F50E0551F629FF001729FD7
:1016E000BB27F00DB11D639FAA27F00DB11DAA1FE6
:1016F000649F6627B00DA11D661F829F2227B00D33
:10170000A11D621F739FB00DA11D621F839FA00DBD
:10171000611D221F749F3327A00D611D231F849F0D
:10172000600D211D822F762F6A2F11249F57504064
:101730009AF0F1F088234AF0EE0FFF1FBB1F661FDF
:10174000771F881F91505040A9F79E3F510580F0A8
:101750000C94BF0B0C944C0B5F3FE4F3983ED4F316
:10176000869577956795B795F795E7959F5FC1F74C
:10177000FE2B880F911D9695879597F9089597F9F7
:101780009F6780E870E060E008959FEF80EC089527
:1017900000240A9416161706180609060895002450
:1017A0000A9412161306140605060895092E0394CA
:1017B000000C11F4882352F0BB0F40F4BF2B11F43E
:1017C00060FF04C06F5F7F4F8F4F9F4F0895F89465
:0217D000FFCF49
:1017D200039F250D9949411F0109FDFFFF010001EA
:1017E2000025022502090008000C00040006000280
:1017F2000003000100010003000200060004000CC7
:06180200000800090002CD
:00000001FF
