:100000000C9472000C9493000C9493000C94930045
:100010000C9493000C9493000C9493000C94930014
:100020000C9493000C9493000C9493000C94060889
:100030000C9493000C9493000C9493000C941B016B
:100040000C9493000C9493000C9493000C949300E4
:100050000C9493000C9493000C9493000C949806C9
:100060000C9493000C9493000C9493000C949300C4
:100070000C9493000C9493000C9493000C94290717
:100080000C9493000C94FC060C9493000C94930035
:100090000C9493000C9493000C9493000C94930094
:1000A0000C9493000C9493000C9493000C94930084
:1000B0000C9493000C941A020C9493000C949300EB
:1000C0000C9493000C9493000C9493000C94930064
:1000D0000C9493000C9493000C9493000C94930054
:1000E0000C94930011241FBECFEFD1E2DEBFCDBF31
:1000F00000E00CBF12E0A0E0B2E0E0E3F4E100E0D9
:100100000BBF02C007900D92AA32B107D9F722E0C7
:10011000AAE2B2E001C01D92AA35B207E1F70E943F
:10012000F2030C94160A0C94000085B194E0892720
:1001300085B9089585B198E0892785B90895EBE0E0
:10014000F1E0808191E0892780830895EBE0F1E080
:10015000808192E0892780830895892B31F0EBE03C
:10016000F1E08081846080830895EBE0F1E080819C
:100170008B7F80830895892B31F0EBE0F1E0808163
:10018000886080830895EBE0F1E08081877F808341
:100190000895CF93DF93D82FC92F0E94AD008D2FE4
:1001A0009C2F0E94BB00DF91CF910895892B31F0E5
:1001B000EBE0F1E08081806180830895EBE0F1E085
:1001C00080818F7E80830895892B31F0EBE0F1E010
:1001D0008081806280830895EBE0F1E080818F7DF3
:1001E00080830895CF93DF93D82FC92F0E94D60024
:1001F0008D2F9C2F0E94E400DF91CF910895892BD1
:1002000031F0EBE0F1E08081806480830895EBE0E1
:10021000F1E080818F7B80830895892B31F0EBE0C2
:10022000F1E08081806880830895EBE0F1E08081D7
:100230008F77808308951F920F920FB60F9211242B
:100240000BB60F922F933F934F935F936F937F93D0
:100250008F939F93AF93BF93EF93FF9380912A0265
:1002600090912B02019690932B0280932A02809109
:100270002A0290912B028C32914099F0FF91EF91DC
:10028000BF91AF919F918F917F916F915F914F91AE
:100290003F912F910F900BBE0F900FBE0F901F90AC
:1002A00018958091320290913302892B19F5EBE079
:1002B000F1E080818E7F80838091300290913102C5
:1002C000892BD9F4EBE0F1E080818D7F80838091F0
:1002D0002E0290912F02892B99F42A9880912C025A
:1002E00090912D02892B79F42B9810922B02109269
:1002F0002A02C4CF0E949F00DFCF0E94A600E7CF52
:100300000E949500EBCF0E949A00EFCF1092B000B0
:1003100083E08093B1001092B3001092B40081E0AA
:100320008093700086E08093B20008958FEF8093F1
:100330000A0184B18C6084B90E94860108951092EC
:100340003B0210923A021092A5001092A40082E0A3
:100350008093A10008951092A1008091360290919F
:100360003702019690933702809336020895809168
:10037000360290913702039744F0109237021092A0
:10038000360210923902109238020895CF93DF930B
:10039000D82FC92F8091380290913902019799F096
:1003A00080E090E00E94180681E090E0909339028E
:1003B00080933802D0933402C09335020E949F018B
:1003C000DF91CF9108950E94B701FACF1092A0005B
:1003D0001092A9001092A8001092AB001092AA00EF
:1003E00081E08093720008950E94E6010895282F0D
:1003F000392F2115310521F02130310571F0089593
:1004000061E070E08AE090E00E94EF0560E070E05B
:100410008BE090E00E94EF05089560E070E08AE0D4
:1004200090E00E94EF0561E070E08BE090E00E94B8
:10043000EF0508951F920F920FB60F9211240BB67D
:100440000F922F933F934F935F936F937F938F936D
:100450009F93AF93BF93EF93FF9380913A02909154
:100460003B02019690933B0280933A0280913A02BC
:1004700090913B02813E9105D1F080913A0290919A
:100480003B028635914019F1FF91EF91BF91AF91F9
:100490009F918F917F916F915F914F913F912F919C
:1004A0000F900BBE0F900FBE0F901F90189580916C
:1004B000360290913702029739F080913402909180
:1004C00035020E94F701D9CF0E94AB01D6CF80E060
:1004D00090E00E94180680913602909137020097B2
:1004E00031F42CEE3FEF30933B0220933A02019619
:1004F0009093370280933602C7CF029B06C080B12B
:1005000083FB882780F990E0089580E090E00895CB
:10051000029905C0039906C080E090E0089581E04B
:1005200090E0089582E090E0089586B186958695E2
:10053000869591E08927817090E0089586B191E0D9
:100540008927817090E00895329B0AC026B12695D4
:1005500031E02327822F817090E0880F991F089542
:1005600081E090E0089580E090E061E070E037B1D4
:10057000AB01082E02C0440F551F0A94E2F7242F46
:100580002095232327B928B1242B28B9019685303B
:10059000910569F7089580E090E061E070E031B185
:1005A000AB01082E02C0440F551F0A94E2F7242F16
:1005B0002095232321B922B1242B22B9019684301E
:1005C000910569F708950E9496010E94D2060E9443
:1005D00040060E94CB020E94B3020E94F4010895DB
:1005E000009902C0019B07C0009B08C0019B09C085
:1005F00083E090E0089580E090E0089581E090E04D
:10060000089582E090E00895282F392F213382E069
:10061000380731F0253F81E038072CF4822F089508
:1006200081E090E0089584E690E00895809154027E
:10063000909155020E94040344970CF499C0809154
:100640005802909159020E940403039754F5809137
:10065000460290914702892B09F050C080914402D4
:1006600090914502892B59F0109245021092440254
:1006700081E090E09093470280934602089581E0E4
:1006800090E090934502809344022FEF87E893E136
:10069000215080409040E1F700C0000083E090E0EE
:1006A00008958091460290914702892B39F58091F7
:1006B0005602909157020E9404030397ECF5809133
:1006C000420290914302892B09F03FC08091400281
:1006D00090914102892B19F581E090E090934102BD
:1006E000809340022FEF87E893E1215080409040B3
:1006F000E1F700C0000083E090E008958091580287
:10070000909159020E94040304978CF210924702C0
:10071000109246021092450210924402C8CF1092E5
:1007200041021092400281E090E090934302809356
:10073000420282E090E0089580914202909143024B
:10074000892B19F483E090E00895809156029091EE
:1007500057020E940403049774F01092430210920F
:100760004202109241021092400283E090E008950C
:1007700080E090E0089583E090E00895282F392FDD
:10078000293231055CF4C9010897059780F02730BC
:100790003105B4F02E303105E4F4089581E090E0A5
:1007A0000E94180680E090E00E94C900089581E050
:1007B00090E00E94180680E090E00E94C900089531
:1007C00082E090E00E94180681E090E00E94C9005B
:1007D000089580E090E00E94180680E090E00E947A
:1007E000C900DBCF0E94E30281E090E00E94F200AA
:1007F000C0E0D0E000E010E06894CC24C1F8D12C37
:1008000032C0C330D10509F4C6C1C430D10559F591
:1008100081E090E00E94180681E090E00E940D01C6
:1008200081E090E00E94FF0081E090E0909333022D
:1008300080933202909331028093300290932F0282
:1008400080932E0290932D0280932C020E94C90067
:100850000E949502C1E0D0E0892B09F4E801CC0F99
:10086000DD1FCC0FDD1F0E949502892B89F6C23057
:10087000D10509F4AFC02CF6209791F1C130D10514
:1008800091F7A0905402B09055020E94F002E82E19
:10089000F92E92E0E916F10409F485C00CF061C06C
:1008A000E114F10409F470C081E0E816F104D9F60E
:1008B00081E090E0909333028093320210933102F2
:1008C000009330026C2D7D2D8BE090E00E94EF05AF
:1008D00061E070E08AE090E00E94EF05E701C3CF9D
:1008E00081E090E00E941806C8010E940D01C80135
:1008F0000E94FF00109333020093320210933102E2
:100900000093300210932F0200932E0210932D02B9
:1009100000932C02C8010E94C9000E949E02282F49
:10092000392F2115310511F4E9019DCF0E94A40250
:10093000282F392F2130310561F02230310509F09F
:1009400092CF8FE39CE90197F1F700C00000E90125
:100950008ACF8FE39CE90197F1F700C00000E9011D
:1009600082CF93E0E916F10409F07DCFC5010E9422
:1009700004030E94BE0310933302009332021093CB
:100980003102009330026FCF81E090E00E941806A0
:1009900081E090E090933302809332029093310291
:1009A0008093300260CF81E090E090933102809399
:1009B000300210933302009332026C2D7D2D8AE0B9
:1009C00090E00E94EF0561E070E08BE090E00E9413
:1009D000EF0549CF0E941603E82EF92E0E947D02F2
:1009E000892B31F080914A0290914B02892B71F151
:1009F0000E947D02892B09F045C022E0E216F10435
:100A000009F483C00CF051C0E114F10409F474C07E
:100A1000EA94EF2809F027CF81E090E00E941806C1
:100A200081E090E090932F0280932E020E94C900F3
:100A30008FEF97E92AE3815090402040E1F700C012
:100A4000000010932F0200932E020DCF2FEF80E7AE
:100A500092E0215080409040E1F700C000000E94E9
:100A60007D02892B51F280914A0290914B02892B91
:100A700021F681E090E090934B0280934A02C3E01C
:100A8000D0E0BBCF2FEF80E792E021508040904034
:100A9000E1F700C000000E947D02C1E0D0E0892B98
:100AA00009F0E801CC0FDD1FA8CF23E0E216F10426
:100AB00009F0D9CE0E948802E82EF92EC8010E94C2
:100AC000C90082E0E816F10409F458C0C4F5E11445
:100AD000F10409F44EC0EA94EF2809F0C4CE61E0B5
:100AE00070E08BE090E00E94EF0560E070E08AE04B
:100AF00090E00E94EF05B7CE81E090E00E941806DA
:100B000081E090E00E94C900AECE81E090E00E94BA
:100B1000180681E090E090932D0280932C020E94B1
:100B2000C9008FEF97E92AE3815090402040E1F718
:100B300000C0000010932D0200932C0294CE83E09D
:100B4000E816F10409F08FCE81E090E090932F0237
:100B500080932E0290932D0280932C029093330267
:100B60008093320290933102809330020E941806E3
:100B70007ACE80E090E00E94180675CE61E070E0C9
:100B80008AE090E00E94EF0560E070E08BE090E08A
:100B90000E94EF0568CEC8010E94C601892BB9F0FA
:100BA0008091480290914902892B31F481E090E0D4
:100BB0009093490280934802029B02C0039953CE4E
:100BC0001093490200934802CC2DDD2D4CCE80912C
:100BD000480290914902892B09F445CEEDCF282F88
:100BE000392F862F972F51E040E08130910569F031
:100BF0002A30310561F02B30310581F00297A9F0E0
:100C000088E192E091838083089550E0F1CF509382
:100C1000020240930302E6E0F2E0F0CF50930002BC
:100C200040930102E4E0F2E0E9CF88E092E0EACF0D
:100C3000CF93DF93D82FC92F682F792F8AE090E0C8
:100C40000E94EF056D2F7C2F8BE090E00E94EF0556
:100C5000DF91CF91089514BC83E085BD17BC18BC0B
:100C600081E080936E0086E086BD78940895809A36
:100C7000819A829A839A849A859A869A879A089505
:100C80000E9437060E942B0681E090E00E94180621
:100C9000089581B3807F81BB81B3E0910602F0911A
:100CA00007022091520230915302220F331FE20FAC
:100CB000F31F9081892B81BB809152029091530246
:100CC0009C012F5F3F4F079729F0309353022093E9
:100CD0005202089520E030E0F8CF81B38F7081BBDD
:100CE00081B3E0910402F09105022091500230910D
:100CF0005102220F331FE20FF31F20813181229511
:100D00003295307F3227207F3227822B81BB809122
:100D10005002909151029C012F5F3F4F079729F09D
:100D20003093510220935002089520E030E0F8CF34
:100D30001F920F920FB60F9211240BB60F922F93A2
:100D40003F934F935F936F937F938F939F93AF9353
:100D5000BF93EF93FF938091020290910302892B3E
:100D6000D9F48091000290910102892BC1F486E0B0
:100D700086BDFF91EF91BF91AF919F918F917F9130
:100D80006F915F914F913F912F910F900BBE0F90FC
:100D90000FBE0F901F9018950E944906E2CF0E9447
:100DA0006D06E5CFF894E0E9F0E080818268808309
:100DB000E1E9F0E080818A61808380E090E89093AF
:100DC00097008093960084E190E09093990080933F
:100DD00098008CE795E190939B0080939A006B9A22
:100DE000E1E7F0E0808184628083E8E6F0E08081E2
:100DF00084608083789408958F938FB78F938BB797
:100E00008F93EF93FF9380912802880F809328029D
:100E1000809128028032A9F0809128028830A9F0C0
:100E20008091280280936D00E1E7F0E0808184608A
:100E30008083FF91EF918F918BBF8F918FBF8F91A7
:100E4000189582E080932802E7CF80E18093280202
:100E5000E7CF1F920F920FB60F9211240BB60F928D
:100E60002F933F934F935F936F937F938F939F93B2
:100E7000AF93BF93EF93FF93CF93DF9300D00F9285
:100E8000CDB7DEB7809128028230F1F1809128023F
:100E9000843009F487C080912802803109F067C04E
:100EA00080919600909197008656914196958795EE
:100EB000969587959C0140E050E029833A834B83C7
:100EC0005C83CA01B9010E941B0928E23EE74CE09D
:100ED0005DE369837A838B839C8369817A818B81CB
:100EE0009C810E94810969837A838B839C836981B9
:100EF0007A818B819C810E94EC08462F572F50935A
:100F000055024093540233C080919600909197000F
:100F10008656914196958795969587959C0140E0D8
:100F200050E029833A834B835C83CA01B9010E9454
:100F30001B0928E23EE74CE05DE369837A838B83FB
:100F40009C8369817A818B819C810E94810969835C
:100F50007A838B839C8369817A818B819C810E94B7
:100F6000EC08462F572F5093570240935602109289
:100F70006D000F900F900F900F90DF91CF91FF9128
:100F8000EF91BF91AF919F918F917F916F915F9101
:100F90004F913F912F910F900BBE0F900FBE0F906E
:100FA0001F901895809196009091970086569141D8
:100FB00096958795969587959C0140E050E029830A
:100FC0003A834B835C83CA01B9010E941B0928E262
:100FD0003EE74CE05DE369837A838B839C83698180
:100FE0007A818B819C810E94810969837A838B83BA
:100FF0009C8369817A818B819C810E94EC08462FB9
:10100000572F5093590240935802B1CF1F920F921D
:101010000FB60F9211240BB60F922F933F934F935D
:101020005F936F937F938F939F93AF93BF93EF9350
:10103000FF93CF93DF9300D00F92CDB7DEB78091AF
:101040002802823009F43FC080912802843009F4DC
:101050008EC080912802803109F069C0809194008F
:10106000909195008656914196958795969587958E
:101070009C0140E050E029833A834B835C83CA01A2
:10108000B9010E941B0928E23EE74CE05DE3698359
:101090007A838B839C8369817A818B819C810E9476
:1010A000810969837A838B839C8369817A818B81AF
:1010B0009C810E94EC08462F572F50935502409375
:1010C0005402139834C080919400909195008656F4
:1010D000914196958795969587959C0140E050E0C3
:1010E00029833A834B835C83CA01B9010E941B099F
:1010F00028E23EE74CE05DE369837A838B839C833F
:1011000069817A818B819C810E94810969837A83BC
:101110008B839C8369817A818B819C810E94EC08FE
:10112000462F572F50935702409356021098E1E7ED
:10113000F0E080818F7D808310926D000F900F9082
:101140000F900F90DF91CF91FF91EF91BF91AF91F1
:101150009F918F917F916F915F914F913F912F91CF
:101160000F900BBE0F900FBE0F901F90189580919F
:101170009400909195008656914196958795969505
:1011800087959C0140E050E029833A834B835C8340
:10119000CA01B9010E941B0928E23EE74CE05DE369
:1011A00069837A838B839C8369817A818B819C811B
:1011B0000E94810969837A838B839C8369817A8108
:1011C0008B819C810E94EC08462F572F5093590227
:1011D000409358021198ABCF0E94600988F09F5746
:1011E00098F0B92F9927B751B0F0E1F0660F771F4B
:1011F000881F991F1AF0BA95C9F714C0B13091F041
:101200000E947A09B1E008950C947A09672F782F2B
:101210008827B85F39F0B93FCCF386957795679505
:10122000B395D9F73EF490958095709561957F4F71
:101230008F4F9F4F0895E89409C097FB3EF4909517
:101240008095709561957F4F8F4F9F4F9923A9F09F
:10125000F92F96E9BB279395F6958795779567952E
:10126000B795F111F8CFFAF4BB0F11F460FF1BC072
:101270006F5F7F4F8F4F9F4F16C0882311F096E905
:1012800011C0772321F09EE8872F762F05C06623B3
:1012900071F096E8862F70E060E02AF09A95660F6C
:1012A000771F881FDAF7880F9695879597F9089525
:1012B00057FD9058440F551F59F05F3F71F0479507
:1012C000880F97FB991F61F09F3F79F087950895EC
:1012D000121613061406551FF2CF4695F1DF08C00B
:1012E000161617061806991FF1CF86957105610528
:1012F00008940895E894BB2766277727CB0197F9D0
:1013000008950E9494090C94050A0E94F70938F088
:101310000E94FE0920F0952311F00C94EE090C9424
:10132000F40911240C947B090E94580970F3959FCD
:10133000C1F3950F50E0551F629FF001729FBB27CC
:10134000F00DB11D639FAA27F00DB11DAA1F649F68
:101350006627B00DA11D661F829F2227B00DA11D1B
:10136000621F739FB00DA11D621F839FA00D611DA1
:10137000221F749F3327A00D611D231F849F600DC2
:10138000211D822F762F6A2F11249F5750409AF0EB
:10139000F1F088234AF0EE0FFF1FBB1F661F771F77
:1013A000881F91505040A9F79E3F510580F00C9442
:1013B000EE090C947B095F3FE4F3983ED4F38695E5
:1013C00077956795B795F795E7959F5FC1F7FE2BE2
:1013D000880F911D9695879597F9089597F99F67BE
:1013E00080E870E060E008959FEF80EC08950024AD
:1013F0000A941616170618060906089500240A947A
:1014000012161306140605060895092E0394000CFF
:1014100011F4882352F0BB0F40F4BF2B11F460FF8E
:1014200004C06F5F7F4F8F4F9F4F0895F894FFCF99
:101430000100010018021802090008000C00040055
:101440000600020003000100010003000200060084
:0A14500004000C000800090002006F
:00000001FF
