:100000000C9472000C9493000C9493000C94930045
:100010000C9493000C9493000C9493000C94930014
:100020000C9493000C9493000C9493000C9447024E
:100030000C9493000C9493000C9493000C949300F4
:100040000C9493000C9493000C9493000C949300E4
:100050000C9493000C9493000C9493000C949300D4
:100060000C9493000C9493000C9493000C949300C4
:100070000C9493000C9493000C9493000C94F70050
:100080000C9493000C94D2000C9493000C94930065
:100090000C9493000C9493000C9493000C94930094
:1000A0000C9493000C9493000C9493000C94930084
:1000B0000C9493000C9493000C9493000C94930074
:1000C0000C9493000C9493000C9493000C94930064
:1000D0000C9493000C9493000C9493000C94930054
:1000E0000C94930011241FBECFEFD1E2DEBFCDBF31
:1000F00000E00CBF12E0A0E0B2E0EAE9F9E000E0C5
:100100000BBF02C007900D92A230B107D9F722E0D1
:10011000A2E0B2E001C01D92AC30B207E1F70E944C
:1001200095000C94CB040C9400000E94A800279A20
:10013000269A04C02F9844974CF42E9A80910A0274
:1001400090910B0285319105ACF32F9A2E98F6CF42
:10015000F894E0E9F0E0808182688083E1E9F0E0F2
:1001600080818A61808380E090E8909397008093FB
:10017000960084E190E090939900809398008CE73A
:1001800095E190939B0080939A006B9AE1E7F0E0F1
:10019000808184628083E8E6F0E0808184608083EF
:1001A000789408958F938FB78F938BB78F93EF9336
:1001B000FF9380910002880F8093000280910002DB
:1001C000803489F08091000280936D00E1E7F0E0D7
:1001D000808184608083FF91EF918F918BBF8F919D
:1001E0008FBF8F91189582E080930002EBCF1F9212
:1001F0000F920FB60F9211240BB60F922F933F93CD
:100200004F935F936F937F938F939F93AF93BF931E
:10021000EF93FF93CF93DF9300D00F92CDB7DEB76C
:1002200080910002823009F448C08091000284303D
:1002300009F491C080910002883009F4C0C0809117
:100240000002803109F4EFC080910002803209F091
:1002500067C080919600909197008656914196953F
:100260008795969587959C0140E050E029833A83D5
:100270004B835C83CA01B9010E94D00328E23EE7A8
:100280004CE05DE369837A838B839C8369817A8107
:100290008B819C810E94360469837A838B839C8343
:1002A00069817A818B819C810E94A103462F572FFF
:1002B000509307024093060233C0809196009091BC
:1002C00097008656914196958795969587959C01BE
:1002D00040E050E029833A834B835C83CA01B90133
:1002E0000E94D00328E23EE74CE05DE369837A8315
:1002F0008B839C8369817A818B819C810E943604E7
:1003000069837A838B839C8369817A818B819C81C9
:100310000E94A103462F572F5093090240930802D1
:1003200010926D000F900F900F900F90DF91CF9172
:10033000FF91EF91BF91AF919F918F917F916F91BD
:100340005F914F913F912F910F900BBE0F900FBE79
:100350000F901F9018958091960090919700865667
:10036000914196958795969587959C0140E050E040
:1003700029833A834B835C83CA01B9010E94D0036D
:1003800028E23EE74CE05DE369837A838B839C83BC
:1003900069817A818B819C810E94360469837A838A
:1003A0008B839C8369817A818B819C810E94A103CC
:1003B000462F572F50930B0240930A02B1CF8091E2
:1003C00096009091970086569141969587959695BF
:1003D00087959C0140E050E029833A834B835C83FE
:1003E000CA01B9010E94D00328E23EE74CE05DE378
:1003F00069837A838B839C8369817A818B819C81D9
:100400000E94360469837A838B839C8369817A8115
:100410008B819C810E94A103462F572F509303028A
:10042000409302027DCF809196009091970086566E
:10043000914196958795969587959C0140E050E06F
:1004400029833A834B835C83CA01B9010E94D0039C
:1004500028E23EE74CE05DE369837A838B839C83EB
:1004600069817A818B819C810E94360469837A83B9
:100470008B839C8369817A818B819C810E94A103FB
:10048000462F572F509305024093040249CF1F92E5
:100490000F920FB60F9211240BB60F922F933F932A
:1004A0004F935F936F937F938F939F93AF93BF937C
:1004B000EF93FF93CF93DF9300D00F92CDB7DEB7CA
:1004C00080910002823009F449C08091000284309A
:1004D00009F498C080910002883009F4C8C0809166
:1004E0000002803109F4F8C080910002803209F0E6
:1004F00069C080919400909195008656914196959F
:100500008795969587959C0140E050E029833A8332
:100510004B835C83CA01B9010E94D00328E23EE705
:100520004CE05DE369837A838B839C8369817A8164
:100530008B819C810E94360469837A838B839C83A0
:1005400069817A818B819C810E94A103462F572F5C
:100550005093070240930602149834C0809194008F
:100560009091950086569141969587959695879599
:100570009C0140E050E029833A834B835C83CA01AD
:10058000B9010E94D00328E23EE74CE05DE36983B5
:100590007A838B839C8369817A818B819C810E9481
:1005A000360469837A838B839C8369817A818B810A
:1005B0009C810E94A103462F572F5093090240931C
:1005C00008021098E1E7F0E080818F7D808310922F
:1005D0006D000F900F900F900F90DF91CF91FF91D2
:1005E000EF91BF91AF919F918F917F916F915F91AB
:1005F0004F913F912F910F900BBE0F900FBE0F9018
:100600001F90189580919400909195008656914185
:1006100096958795969587959C0140E050E02983B3
:100620003A834B835C83CA01B9010E94D00328E25C
:100630003EE74CE05DE369837A838B839C83698129
:100640007A818B819C810E94360469837A838B83B3
:100650009C8369817A818B819C810E94A103462FB2
:10066000572F50930B0240930A021198ABCF809101
:100670009400909195008656914196958795969510
:1006800087959C0140E050E029833A834B835C834B
:10069000CA01B9010E94D00328E23EE74CE05DE3C5
:1006A00069837A838B839C8369817A818B819C8126
:1006B0000E94360469837A838B839C8369817A8163
:1006C0008B819C810E94A103462F572F50930302D8
:1006D00040930202129876CF8091940090919500F9
:1006E0008656914196958795969587959C0140E011
:1006F00050E029833A834B835C83CA01B9010E948D
:10070000D00328E23EE74CE05DE369837A838B8384
:100710009C8369817A818B819C810E9436046983E4
:100720007A838B839C8369817A818B819C810E94EF
:10073000A103462F572F50930502409304021398AC
:1007400041CF0E94150488F09F5798F0B92F992740
:10075000B751B0F0E1F0660F771F881F991F1AF0AC
:10076000BA95C9F714C0B13091F00E942F04B1E0DE
:1007700008950C942F04672F782F8827B85F39F0DD
:10078000B93FCCF3869577956795B395D9F73EF445
:1007900090958095709561957F4F8F4F9F4F0895ED
:1007A000E89409C097FB3EF490958095709561950B
:1007B0007F4F8F4F9F4F9923A9F0F92F96E9BB27C1
:1007C0009395F695879577956795B795F111F8CF3D
:1007D000FAF4BB0F11F460FF1BC06F5F7F4F8F4FA8
:1007E0009F4F16C0882311F096E911C0772321F09E
:1007F0009EE8872F762F05C0662371F096E8862F36
:1008000070E060E02AF09A95660F771F881FDAF78C
:10081000880F9695879597F9089557FD9058440F3E
:10082000551F59F05F3F71F04795880F97FB991F4F
:1008300061F09F3F79F0879508951216130614060C
:10084000551FF2CF4695F1DF08C016161706180699
:10085000991FF1CF86957105610508940895E89474
:10086000BB2766277727CB0197F908950E94490493
:100870000C94BA040E94AC0438F00E94B30420F037
:10088000952311F00C94A3040C94A90411240C9446
:1008900030040E940D0470F3959FC1F3950F50E052
:1008A000551F629FF001729FBB27F00DB11D639F22
:1008B000AA27F00DB11DAA1F649F6627B00DA11DC8
:1008C000661F829F2227B00DA11D621F739FB00D6E
:1008D000A11D621F839FA00D611D221F749F3327DE
:1008E000A00D611D231F849F600D211D822F762F77
:1008F0006A2F11249F5750409AF0F1F088234AF054
:10090000EE0FFF1FBB1F661F771F881F91505040BF
:10091000A9F79E3F510580F00C94A3040C94300479
:100920005F3FE4F3983ED4F3869577956795B79546
:10093000F795E7959F5FC1F7FE2B880F911D969560
:10094000879597F9089597F99F6780E870E060E0D0
:1009500008959FEF80EC089500240A941616170658
:1009600018060906089500240A94121613061406A0
:1009700005060895092E0394000C11F4882352F003
:10098000BB0F40F4BF2B11F460FF04C06F5F7F4FBB
:0A0990008F4F9F4F0895F894FFCF9A
:02099A00020059
:00000001FF
